{
  "_format": "hh-sol-artifact-1",
  "contractName": "Dwarf",
  "sourceName": "contracts/dwarf.sol",
  "abi": [
    {
      "inputs": [
        {
          "internalType": "string",
          "name": "name",
          "type": "string"
        },
        {
          "internalType": "string",
          "name": "symbol",
          "type": "string"
        },
        {
          "internalType": "string",
          "name": "_BASE_URI",
          "type": "string"
        },
        {
          "internalType": "address",
          "name": "passContractAddress",
          "type": "address"
        }
      ],
      "stateMutability": "nonpayable",
      "type": "constructor"
    },
    {
      "anonymous": false,
      "inputs": [
        {
          "indexed": true,
          "internalType": "address",
          "name": "owner",
          "type": "address"
        },
        {
          "indexed": true,
          "internalType": "address",
          "name": "approved",
          "type": "address"
        },
        {
          "indexed": true,
          "internalType": "uint256",
          "name": "tokenId",
          "type": "uint256"
        }
      ],
      "name": "Approval",
      "type": "event"
    },
    {
      "anonymous": false,
      "inputs": [
        {
          "indexed": true,
          "internalType": "address",
          "name": "owner",
          "type": "address"
        },
        {
          "indexed": true,
          "internalType": "address",
          "name": "operator",
          "type": "address"
        },
        {
          "indexed": false,
          "internalType": "bool",
          "name": "approved",
          "type": "bool"
        }
      ],
      "name": "ApprovalForAll",
      "type": "event"
    },
    {
      "anonymous": false,
      "inputs": [
        {
          "indexed": true,
          "internalType": "address",
          "name": "previousOwner",
          "type": "address"
        },
        {
          "indexed": true,
          "internalType": "address",
          "name": "newOwner",
          "type": "address"
        }
      ],
      "name": "OwnershipTransferred",
      "type": "event"
    },
    {
      "anonymous": false,
      "inputs": [
        {
          "indexed": true,
          "internalType": "address",
          "name": "from",
          "type": "address"
        },
        {
          "indexed": true,
          "internalType": "address",
          "name": "to",
          "type": "address"
        },
        {
          "indexed": true,
          "internalType": "uint256",
          "name": "tokenId",
          "type": "uint256"
        }
      ],
      "name": "Transfer",
      "type": "event"
    },
    {
      "inputs": [],
      "name": "IS_OG_SALE_ACTIVE",
      "outputs": [
        {
          "internalType": "bool",
          "name": "",
          "type": "bool"
        }
      ],
      "stateMutability": "view",
      "type": "function"
    },
    {
      "inputs": [],
      "name": "IS_PRE_SALE_ACTIVE",
      "outputs": [
        {
          "internalType": "bool",
          "name": "",
          "type": "bool"
        }
      ],
      "stateMutability": "view",
      "type": "function"
    },
    {
      "inputs": [],
      "name": "IS_PUBLIC_SALE_ACTIVE",
      "outputs": [
        {
          "internalType": "bool",
          "name": "",
          "type": "bool"
        }
      ],
      "stateMutability": "view",
      "type": "function"
    },
    {
      "inputs": [],
      "name": "MAX_SUPPLY",
      "outputs": [
        {
          "internalType": "uint256",
          "name": "",
          "type": "uint256"
        }
      ],
      "stateMutability": "view",
      "type": "function"
    },
    {
      "inputs": [
        {
          "internalType": "address",
          "name": "to",
          "type": "address"
        },
        {
          "internalType": "uint256",
          "name": "tokenId",
          "type": "uint256"
        }
      ],
      "name": "approve",
      "outputs": [],
      "stateMutability": "nonpayable",
      "type": "function"
    },
    {
      "inputs": [
        {
          "internalType": "address",
          "name": "owner",
          "type": "address"
        }
      ],
      "name": "balanceOf",
      "outputs": [
        {
          "internalType": "uint256",
          "name": "",
          "type": "uint256"
        }
      ],
      "stateMutability": "view",
      "type": "function"
    },
    {
      "inputs": [
        {
          "internalType": "uint256",
          "name": "tokenId",
          "type": "uint256"
        }
      ],
      "name": "getApproved",
      "outputs": [
        {
          "internalType": "address",
          "name": "",
          "type": "address"
        }
      ],
      "stateMutability": "view",
      "type": "function"
    },
    {
      "inputs": [
        {
          "internalType": "address",
          "name": "owner",
          "type": "address"
        },
        {
          "internalType": "address",
          "name": "operator",
          "type": "address"
        }
      ],
      "name": "isApprovedForAll",
      "outputs": [
        {
          "internalType": "bool",
          "name": "",
          "type": "bool"
        }
      ],
      "stateMutability": "view",
      "type": "function"
    },
    {
      "inputs": [],
      "name": "name",
      "outputs": [
        {
          "internalType": "string",
          "name": "",
          "type": "string"
        }
      ],
      "stateMutability": "view",
      "type": "function"
    },
    {
      "inputs": [
        {
          "internalType": "uint256",
          "name": "quantity",
          "type": "uint256"
        }
      ],
      "name": "ogSale",
      "outputs": [],
      "stateMutability": "payable",
      "type": "function"
    },
    {
      "inputs": [],
      "name": "owner",
      "outputs": [
        {
          "internalType": "address",
          "name": "",
          "type": "address"
        }
      ],
      "stateMutability": "view",
      "type": "function"
    },
    {
      "inputs": [
        {
          "internalType": "uint256",
          "name": "numberOfTokens",
          "type": "uint256"
        }
      ],
      "name": "ownerMint",
      "outputs": [],
      "stateMutability": "nonpayable",
      "type": "function"
    },
    {
      "inputs": [
        {
          "internalType": "uint256",
          "name": "tokenId",
          "type": "uint256"
        }
      ],
      "name": "ownerOf",
      "outputs": [
        {
          "internalType": "address",
          "name": "",
          "type": "address"
        }
      ],
      "stateMutability": "view",
      "type": "function"
    },
    {
      "inputs": [
        {
          "internalType": "uint256",
          "name": "quantity",
          "type": "uint256"
        }
      ],
      "name": "preSale",
      "outputs": [],
      "stateMutability": "payable",
      "type": "function"
    },
    {
      "inputs": [
        {
          "internalType": "uint256",
          "name": "quantity",
          "type": "uint256"
        }
      ],
      "name": "publicSale",
      "outputs": [],
      "stateMutability": "payable",
      "type": "function"
    },
    {
      "inputs": [],
      "name": "renounceOwnership",
      "outputs": [],
      "stateMutability": "nonpayable",
      "type": "function"
    },
    {
      "inputs": [],
      "name": "root",
      "outputs": [
        {
          "internalType": "bytes32",
          "name": "",
          "type": "bytes32"
        }
      ],
      "stateMutability": "view",
      "type": "function"
    },
    {
      "inputs": [
        {
          "internalType": "address",
          "name": "from",
          "type": "address"
        },
        {
          "internalType": "address",
          "name": "to",
          "type": "address"
        },
        {
          "internalType": "uint256",
          "name": "tokenId",
          "type": "uint256"
        }
      ],
      "name": "safeTransferFrom",
      "outputs": [],
      "stateMutability": "nonpayable",
      "type": "function"
    },
    {
      "inputs": [
        {
          "internalType": "address",
          "name": "from",
          "type": "address"
        },
        {
          "internalType": "address",
          "name": "to",
          "type": "address"
        },
        {
          "internalType": "uint256",
          "name": "tokenId",
          "type": "uint256"
        },
        {
          "internalType": "bytes",
          "name": "_data",
          "type": "bytes"
        }
      ],
      "name": "safeTransferFrom",
      "outputs": [],
      "stateMutability": "nonpayable",
      "type": "function"
    },
    {
      "inputs": [
        {
          "internalType": "address",
          "name": "operator",
          "type": "address"
        },
        {
          "internalType": "bool",
          "name": "approved",
          "type": "bool"
        }
      ],
      "name": "setApprovalForAll",
      "outputs": [],
      "stateMutability": "nonpayable",
      "type": "function"
    },
    {
      "inputs": [
        {
          "internalType": "string",
          "name": "newUri",
          "type": "string"
        }
      ],
      "name": "setBaseURI",
      "outputs": [],
      "stateMutability": "nonpayable",
      "type": "function"
    },
    {
      "inputs": [
        {
          "internalType": "bytes32",
          "name": "merkleroot",
          "type": "bytes32"
        }
      ],
      "name": "setMerkleRoot",
      "outputs": [],
      "stateMutability": "nonpayable",
      "type": "function"
    },
    {
      "inputs": [
        {
          "internalType": "address",
          "name": "_contractAddress",
          "type": "address"
        }
      ],
      "name": "setPassContractAddress",
      "outputs": [],
      "stateMutability": "nonpayable",
      "type": "function"
    },
    {
      "inputs": [
        {
          "internalType": "bytes4",
          "name": "interfaceId",
          "type": "bytes4"
        }
      ],
      "name": "supportsInterface",
      "outputs": [
        {
          "internalType": "bool",
          "name": "",
          "type": "bool"
        }
      ],
      "stateMutability": "view",
      "type": "function"
    },
    {
      "inputs": [],
      "name": "symbol",
      "outputs": [
        {
          "internalType": "string",
          "name": "",
          "type": "string"
        }
      ],
      "stateMutability": "view",
      "type": "function"
    },
    {
      "inputs": [],
      "name": "toggleOGSale",
      "outputs": [],
      "stateMutability": "nonpayable",
      "type": "function"
    },
    {
      "inputs": [],
      "name": "togglePreSale",
      "outputs": [],
      "stateMutability": "nonpayable",
      "type": "function"
    },
    {
      "inputs": [],
      "name": "togglePublicSale",
      "outputs": [],
      "stateMutability": "nonpayable",
      "type": "function"
    },
    {
      "inputs": [
        {
          "internalType": "uint256",
          "name": "_tokenId",
          "type": "uint256"
        }
      ],
      "name": "tokenURI",
      "outputs": [
        {
          "internalType": "string",
          "name": "",
          "type": "string"
        }
      ],
      "stateMutability": "view",
      "type": "function"
    },
    {
      "inputs": [],
      "name": "totalSupply",
      "outputs": [
        {
          "internalType": "uint256",
          "name": "",
          "type": "uint256"
        }
      ],
      "stateMutability": "view",
      "type": "function"
    },
    {
      "inputs": [
        {
          "internalType": "address",
          "name": "from",
          "type": "address"
        },
        {
          "internalType": "address",
          "name": "to",
          "type": "address"
        },
        {
          "internalType": "uint256",
          "name": "tokenId",
          "type": "uint256"
        }
      ],
      "name": "transferFrom",
      "outputs": [],
      "stateMutability": "nonpayable",
      "type": "function"
    },
    {
      "inputs": [
        {
          "internalType": "address",
          "name": "newOwner",
          "type": "address"
        }
      ],
      "name": "transferOwnership",
      "outputs": [],
      "stateMutability": "nonpayable",
      "type": "function"
    },
    {
      "inputs": [],
      "name": "withdrawFunds",
      "outputs": [],
      "stateMutability": "nonpayable",
      "type": "function"
    }
  ],
  "bytecode": "0x6080604052670de0b6b3a7640000600a55671158e460913d0000600b556714d1120d7b160000600c556000600d60006101000a81548160ff0219169083151502179055506000600d60016101000a81548160ff0219169083151502179055506000600d60026101000a81548160ff0219169083151502179055503480156200008657600080fd5b5060405162005195380380620051958339818101604052810190620000ac91906200039a565b83838160009080519060200190620000c692919062000261565b508060019080519060200190620000df92919062000261565b50505062000102620000f66200017d60201b60201c565b6200018560201b60201c565b80600f60006101000a81548173ffffffffffffffffffffffffffffffffffffffff021916908373ffffffffffffffffffffffffffffffffffffffff16021790555081600990805190602001906200015b92919062000261565b506200017360076200024b60201b6200229f1760201c565b505050506200060f565b600033905090565b6000600660009054906101000a900473ffffffffffffffffffffffffffffffffffffffff16905081600660006101000a81548173ffffffffffffffffffffffffffffffffffffffff021916908373ffffffffffffffffffffffffffffffffffffffff1602179055508173ffffffffffffffffffffffffffffffffffffffff168173ffffffffffffffffffffffffffffffffffffffff167f8be0079c531659141344cd1fd0a4f28419497f9722a3daafe3b4186f6b6457e060405160405180910390a35050565b6001816000016000828254019250508190555050565b8280546200026f906200051a565b90600052602060002090601f016020900481019282620002935760008555620002df565b82601f10620002ae57805160ff1916838001178555620002df565b82800160010185558215620002df579182015b82811115620002de578251825591602001919060010190620002c1565b5b509050620002ee9190620002f2565b5090565b5b808211156200030d576000816000905550600101620002f3565b5090565b60006200032862000322846200047a565b62000451565b9050828152602081018484840111156200034157600080fd5b6200034e848285620004e4565b509392505050565b6000815190506200036781620005f5565b92915050565b600082601f8301126200037f57600080fd5b81516200039184826020860162000311565b91505092915050565b60008060008060808587031215620003b157600080fd5b600085015167ffffffffffffffff811115620003cc57600080fd5b620003da878288016200036d565b945050602085015167ffffffffffffffff811115620003f857600080fd5b62000406878288016200036d565b935050604085015167ffffffffffffffff8111156200042457600080fd5b62000432878288016200036d565b9250506060620004458782880162000356565b91505092959194509250565b60006200045d62000470565b90506200046b828262000550565b919050565b6000604051905090565b600067ffffffffffffffff821115620004985762000497620005b5565b5b620004a382620005e4565b9050602081019050919050565b6000620004bd82620004c4565b9050919050565b600073ffffffffffffffffffffffffffffffffffffffff82169050919050565b60005b8381101562000504578082015181840152602081019050620004e7565b8381111562000514576000848401525b50505050565b600060028204905060018216806200053357607f821691505b602082108114156200054a576200054962000586565b5b50919050565b6200055b82620005e4565b810181811067ffffffffffffffff821117156200057d576200057c620005b5565b5b80604052505050565b7f4e487b7100000000000000000000000000000000000000000000000000000000600052602260045260246000fd5b7f4e487b7100000000000000000000000000000000000000000000000000000000600052604160045260246000fd5b6000601f19601f8301169050919050565b6200060081620004b0565b81146200060c57600080fd5b50565b614b76806200061f6000396000f3fe6080604052600436106101ee5760003560e01c80637cb647591161010d578063bb20b543116100a0578063e94d75f31161006f578063e94d75f314610660578063e985e9c51461068b578063ebf0c717146106c8578063f19e75d4146106f3578063f2fde38b1461071c576101ee565b8063bb20b543146105ca578063c87b56dd146105f5578063ca3cb52214610632578063e222c7f914610649576101ee565b806399800185116100dc5780639980018514610545578063a22cb4651461055c578063b287c8ed14610585578063b88d4fde146105a1576101ee565b80637cb647591461049b5780638da5cb5b146104c45780638e70d274146104ef57806395d89b411461051a576101ee565b806324600fc3116101855780636352211e116101545780636352211e146103ee57806367418fc21461042b57806370a0823114610447578063715018a614610484576101ee565b806324600fc31461035a57806332cb6b0c1461037157806342842e0e1461039c57806355f804b3146103c5576101ee565b80630c153b49116101c15780630c153b49146102c1578063131f4104146102ea57806318160ddd1461030657806323b872dd14610331576101ee565b806301ffc9a7146101f357806306fdde0314610230578063081812fc1461025b578063095ea7b314610298575b600080fd5b3480156101ff57600080fd5b5061021a600480360381019061021591906135b6565b610745565b6040516102279190613bef565b60405180910390f35b34801561023c57600080fd5b50610245610827565b6040516102529190613c25565b60405180910390f35b34801561026757600080fd5b50610282600480360381019061027d9190613649565b6108b9565b60405161028f9190613b88565b60405180910390f35b3480156102a457600080fd5b506102bf60048036038101906102ba91906134e7565b61093e565b005b3480156102cd57600080fd5b506102e860048036038101906102e3919061337c565b610a56565b005b61030460048036038101906102ff9190613649565b610b16565b005b34801561031257600080fd5b5061031b611104565b6040516103289190613f87565b60405180910390f35b34801561033d57600080fd5b50610358600480360381019061035391906133e1565b611121565b005b34801561036657600080fd5b5061036f611181565b005b34801561037d57600080fd5b50610386611246565b6040516103939190613f87565b60405180910390f35b3480156103a857600080fd5b506103c360048036038101906103be91906133e1565b61124c565b005b3480156103d157600080fd5b506103ec60048036038101906103e79190613608565b61126c565b005b3480156103fa57600080fd5b5061041560048036038101906104109190613649565b611302565b6040516104229190613b88565b60405180910390f35b61044560048036038101906104409190613649565b6113b4565b005b34801561045357600080fd5b5061046e6004803603810190610469919061337c565b611884565b60405161047b9190613f87565b60405180910390f35b34801561049057600080fd5b5061049961193c565b005b3480156104a757600080fd5b506104c260048036038101906104bd919061358d565b6119c4565b005b3480156104d057600080fd5b506104d9611a4a565b6040516104e69190613b88565b60405180910390f35b3480156104fb57600080fd5b50610504611a74565b6040516105119190613bef565b60405180910390f35b34801561052657600080fd5b5061052f611a87565b60405161053c9190613c25565b60405180910390f35b34801561055157600080fd5b5061055a611b19565b005b34801561056857600080fd5b50610583600480360381019061057e91906134ab565b611bc1565b005b61059f600480360381019061059a9190613649565b611bd7565b005b3480156105ad57600080fd5b506105c860048036038101906105c39190613430565b611daf565b005b3480156105d657600080fd5b506105df611e11565b6040516105ec9190613bef565b60405180910390f35b34801561060157600080fd5b5061061c60048036038101906106179190613649565b611e24565b6040516106299190613c25565b60405180910390f35b34801561063e57600080fd5b50610647611ea6565b005b34801561065557600080fd5b5061065e611f4e565b005b34801561066c57600080fd5b50610675611ff6565b6040516106829190613bef565b60405180910390f35b34801561069757600080fd5b506106b260048036038101906106ad91906133a5565b612009565b6040516106bf9190613bef565b60405180910390f35b3480156106d457600080fd5b506106dd61209d565b6040516106ea9190613c0a565b60405180910390f35b3480156106ff57600080fd5b5061071a60048036038101906107159190613649565b6120a3565b005b34801561072857600080fd5b50610743600480360381019061073e919061337c565b6121a7565b005b60007f80ac58cd000000000000000000000000000000000000000000000000000000007bffffffffffffffffffffffffffffffffffffffffffffffffffffffff1916827bffffffffffffffffffffffffffffffffffffffffffffffffffffffff1916148061081057507f5b5e139f000000000000000000000000000000000000000000000000000000007bffffffffffffffffffffffffffffffffffffffffffffffffffffffff1916827bffffffffffffffffffffffffffffffffffffffffffffffffffffffff1916145b80610820575061081f826122b5565b5b9050919050565b606060008054610836906142b5565b80601f0160208091040260200160405190810160405280929190818152602001828054610862906142b5565b80156108af5780601f10610884576101008083540402835291602001916108af565b820191906000526020600020905b81548152906001019060200180831161089257829003601f168201915b5050505050905090565b60006108c48261231f565b610903576040517f08c379a00000000000000000000000000000000000000000000000000000000081526004016108fa90613ea7565b60405180910390fd5b6004600083815260200190815260200160002060009054906101000a900473ffffffffffffffffffffffffffffffffffffffff169050919050565b600061094982611302565b90508073ffffffffffffffffffffffffffffffffffffffff168373ffffffffffffffffffffffffffffffffffffffff1614156109ba576040517f08c379a00000000000000000000000000000000000000000000000000000000081526004016109b190613f27565b60405180910390fd5b8073ffffffffffffffffffffffffffffffffffffffff166109d961238b565b73ffffffffffffffffffffffffffffffffffffffff161480610a085750610a0781610a0261238b565b612009565b5b610a47576040517f08c379a0000000000000000000000000000000000000000000000000000000008152600401610a3e90613e07565b60405180910390fd5b610a518383612393565b505050565b610a5e61238b565b73ffffffffffffffffffffffffffffffffffffffff16610a7c611a4a565b73ffffffffffffffffffffffffffffffffffffffff1614610ad2576040517f08c379a0000000000000000000000000000000000000000000000000000000008152600401610ac990613ee7565b60405180910390fd5b80600f60006101000a81548173ffffffffffffffffffffffffffffffffffffffff021916908373ffffffffffffffffffffffffffffffffffffffff16021790555050565b3273ffffffffffffffffffffffffffffffffffffffff163373ffffffffffffffffffffffffffffffffffffffff1614610b84576040517f08c379a0000000000000000000000000000000000000000000000000000000008152600401610b7b90613f47565b60405180910390fd5b600d60019054906101000a900460ff16610bd3576040517f08c379a0000000000000000000000000000000000000000000000000000000008152600401610bca90613ec7565b60405180910390fd5b6000610bdf600761244c565b90506000600f60009054906101000a900473ffffffffffffffffffffffffffffffffffffffff1673ffffffffffffffffffffffffffffffffffffffff166370a08231336040518263ffffffff1660e01b8152600401610c3e9190613b88565b60206040518083038186803b158015610c5657600080fd5b505afa158015610c6a573d6000803e3d6000fd5b505050506040513d601f19601f82011682018060405250810190610c8e9190613672565b905061270f8383610c9f9190614098565b10610cdf576040517f08c379a0000000000000000000000000000000000000000000000000000000008152600401610cd690613da7565b60405180910390fd5b82811015610d22576040517f08c379a0000000000000000000000000000000000000000000000000000000008152600401610d1990613de7565b60405180910390fd5b600583600e60003373ffffffffffffffffffffffffffffffffffffffff1673ffffffffffffffffffffffffffffffffffffffff16815260200190815260200160002054610d6f9190614098565b10610daf576040517f08c379a0000000000000000000000000000000000000000000000000000000008152600401610da690613d07565b60405180910390fd5b610dbb83600b5461245a565b341015610dfd576040517f08c379a0000000000000000000000000000000000000000000000000000000008152600401610df490613c67565b60405180910390fd5b600080600f60009054906101000a900473ffffffffffffffffffffffffffffffffffffffff1673ffffffffffffffffffffffffffffffffffffffff16638462151c336040518263ffffffff1660e01b8152600401610e5b9190613b88565b60006040518083038186803b158015610e7357600080fd5b505afa158015610e87573d6000803e3d6000fd5b505050506040513d6000823e3d601f19601f82011682018060405250810190610eb09190613523565b905060005b81518110156110b657858360ff161415610ece576110b6565b600f60009054906101000a900473ffffffffffffffffffffffffffffffffffffffff1673ffffffffffffffffffffffffffffffffffffffff16634878f78f838381518110610f45577f4e487b7100000000000000000000000000000000000000000000000000000000600052603260045260246000fd5b60200260200101516040518263ffffffff1660e01b8152600401610f699190613f87565b602060405180830381600087803b158015610f8357600080fd5b505af1158015610f97573d6000803e3d6000fd5b505050506040513d601f19601f82011682018060405250810190610fbb9190613564565b6110a357600f60009054906101000a900473ffffffffffffffffffffffffffffffffffffffff1673ffffffffffffffffffffffffffffffffffffffff166342966c68838381518110611036577f4e487b7100000000000000000000000000000000000000000000000000000000600052603260045260246000fd5b60200260200101516040518263ffffffff1660e01b815260040161105a9190613f87565b600060405180830381600087803b15801561107457600080fd5b505af1158015611088573d6000803e3d6000fd5b505050506110946124a0565b828061109f90614361565b9350505b80806110ae90614318565b915050610eb5565b5060008260ff16116110fd576040517f08c379a00000000000000000000000000000000000000000000000000000000081526004016110f490613c47565b60405180910390fd5b5050505050565b60006001611112600761244c565b61111c91906141b4565b905090565b61113261112c61238b565b8261251a565b611171576040517f08c379a000000000000000000000000000000000000000000000000000000000815260040161116890613f67565b60405180910390fd5b61117c8383836125f8565b505050565b61118961238b565b73ffffffffffffffffffffffffffffffffffffffff166111a7611a4a565b73ffffffffffffffffffffffffffffffffffffffff16146111fd576040517f08c379a00000000000000000000000000000000000000000000000000000000081526004016111f490613ee7565b60405180910390fd5b3373ffffffffffffffffffffffffffffffffffffffff166108fc479081150290604051600060405180830381858888f19350505050158015611243573d6000803e3d6000fd5b50565b61270f81565b61126783838360405180602001604052806000815250611daf565b505050565b61127461238b565b73ffffffffffffffffffffffffffffffffffffffff16611292611a4a565b73ffffffffffffffffffffffffffffffffffffffff16146112e8576040517f08c379a00000000000000000000000000000000000000000000000000000000081526004016112df90613ee7565b60405180910390fd5b80600990805190602001906112fe9291906130cb565b5050565b6000806002600084815260200190815260200160002060009054906101000a900473ffffffffffffffffffffffffffffffffffffffff169050600073ffffffffffffffffffffffffffffffffffffffff168173ffffffffffffffffffffffffffffffffffffffff1614156113ab576040517f08c379a00000000000000000000000000000000000000000000000000000000081526004016113a290613e47565b60405180910390fd5b80915050919050565b3273ffffffffffffffffffffffffffffffffffffffff163373ffffffffffffffffffffffffffffffffffffffff1614611422576040517f08c379a000000000000000000000000000000000000000000000000000000000815260040161141990613f47565b60405180910390fd5b600d60009054906101000a900460ff16611471576040517f08c379a000000000000000000000000000000000000000000000000000000000815260040161146890613d27565b60405180910390fd5b600061147d600761244c565b905061270f828261148e9190614098565b106114ce576040517f08c379a00000000000000000000000000000000000000000000000000000000081526004016114c590613da7565b60405180910390fd5b6114da82600a5461245a565b34101561151c576040517f08c379a000000000000000000000000000000000000000000000000000000000815260040161151390613c67565b60405180910390fd5b600080600f60009054906101000a900473ffffffffffffffffffffffffffffffffffffffff1673ffffffffffffffffffffffffffffffffffffffff16638462151c336040518263ffffffff1660e01b815260040161157a9190613b88565b60006040518083038186803b15801561159257600080fd5b505afa1580156115a6573d6000803e3d6000fd5b505050506040513d6000823e3d601f19601f820116820180604052508101906115cf9190613523565b905060005b81518110156117be57600f60009054906101000a900473ffffffffffffffffffffffffffffffffffffffff1673ffffffffffffffffffffffffffffffffffffffff16634878f78f838381518110611654577f4e487b7100000000000000000000000000000000000000000000000000000000600052603260045260246000fd5b60200260200101516040518263ffffffff1660e01b81526004016116789190613f87565b602060405180830381600087803b15801561169257600080fd5b505af11580156116a6573d6000803e3d6000fd5b505050506040513d601f19601f820116820180604052508101906116ca9190613564565b156117ab57600f60009054906101000a900473ffffffffffffffffffffffffffffffffffffffff1673ffffffffffffffffffffffffffffffffffffffff166342966c68838381518110611746577f4e487b7100000000000000000000000000000000000000000000000000000000600052603260045260246000fd5b60200260200101516040518263ffffffff1660e01b815260040161176a9190613f87565b600060405180830381600087803b15801561178457600080fd5b505af1158015611798573d6000803e3d6000fd5b5050505082806117a790614361565b9350505b80806117b690614318565b9150506115d4565b5060008260ff1611611805576040517f08c379a00000000000000000000000000000000000000000000000000000000081526004016117fc90613c47565b60405180910390fd5b836005836118139190614179565b60ff161015611857576040517f08c379a000000000000000000000000000000000000000000000000000000000815260040161184e90613e67565b60405180910390fd5b60005b8481101561187d5761186a6124a0565b808061187590614318565b91505061185a565b5050505050565b60008073ffffffffffffffffffffffffffffffffffffffff168273ffffffffffffffffffffffffffffffffffffffff1614156118f5576040517f08c379a00000000000000000000000000000000000000000000000000000000081526004016118ec90613e27565b60405180910390fd5b600360008373ffffffffffffffffffffffffffffffffffffffff1673ffffffffffffffffffffffffffffffffffffffff168152602001908152602001600020549050919050565b61194461238b565b73ffffffffffffffffffffffffffffffffffffffff16611962611a4a565b73ffffffffffffffffffffffffffffffffffffffff16146119b8576040517f08c379a00000000000000000000000000000000000000000000000000000000081526004016119af90613ee7565b60405180910390fd5b6119c2600061285f565b565b6119cc61238b565b73ffffffffffffffffffffffffffffffffffffffff166119ea611a4a565b73ffffffffffffffffffffffffffffffffffffffff1614611a40576040517f08c379a0000000000000000000000000000000000000000000000000000000008152600401611a3790613ee7565b60405180910390fd5b8060088190555050565b6000600660009054906101000a900473ffffffffffffffffffffffffffffffffffffffff16905090565b600d60019054906101000a900460ff1681565b606060018054611a96906142b5565b80601f0160208091040260200160405190810160405280929190818152602001828054611ac2906142b5565b8015611b0f5780601f10611ae457610100808354040283529160200191611b0f565b820191906000526020600020905b815481529060010190602001808311611af257829003601f168201915b5050505050905090565b611b2161238b565b73ffffffffffffffffffffffffffffffffffffffff16611b3f611a4a565b73ffffffffffffffffffffffffffffffffffffffff1614611b95576040517f08c379a0000000000000000000000000000000000000000000000000000000008152600401611b8c90613ee7565b60405180910390fd5b600d60009054906101000a900460ff1615600d60006101000a81548160ff021916908315150217905550565b611bd3611bcc61238b565b8383612925565b5050565b3273ffffffffffffffffffffffffffffffffffffffff163373ffffffffffffffffffffffffffffffffffffffff1614611c45576040517f08c379a0000000000000000000000000000000000000000000000000000000008152600401611c3c90613f47565b60405180910390fd5b600d60029054906101000a900460ff16611c94576040517f08c379a0000000000000000000000000000000000000000000000000000000008152600401611c8b90613d87565b60405180910390fd5b6000611ca0600761244c565b905061270f8282611cb19190614098565b10611cf1576040517f08c379a0000000000000000000000000000000000000000000000000000000008152600401611ce890613da7565b60405180910390fd5b600a8210611d34576040517f08c379a0000000000000000000000000000000000000000000000000000000008152600401611d2b90613d07565b60405180910390fd5b81600c54611d42919061411f565b341015611d84576040517f08c379a0000000000000000000000000000000000000000000000000000000008152600401611d7b90613c67565b60405180910390fd5b60005b82811015611daa57611d976124a0565b8080611da290614318565b915050611d87565b505050565b611dc0611dba61238b565b8361251a565b611dff576040517f08c379a0000000000000000000000000000000000000000000000000000000008152600401611df690613f67565b60405180910390fd5b611e0b84848484612a92565b50505050565b600d60009054906101000a900460ff1681565b6060611e2f8261231f565b611e6e576040517f08c379a0000000000000000000000000000000000000000000000000000000008152600401611e6590613f07565b60405180910390fd5b611e76612aee565b611e7f83612b80565b604051602001611e90929190613b4e565b6040516020818303038152906040529050919050565b611eae61238b565b73ffffffffffffffffffffffffffffffffffffffff16611ecc611a4a565b73ffffffffffffffffffffffffffffffffffffffff1614611f22576040517f08c379a0000000000000000000000000000000000000000000000000000000008152600401611f1990613ee7565b60405180910390fd5b600d60019054906101000a900460ff1615600d60016101000a81548160ff021916908315150217905550565b611f5661238b565b73ffffffffffffffffffffffffffffffffffffffff16611f74611a4a565b73ffffffffffffffffffffffffffffffffffffffff1614611fca576040517f08c379a0000000000000000000000000000000000000000000000000000000008152600401611fc190613ee7565b60405180910390fd5b600d60029054906101000a900460ff1615600d60026101000a81548160ff021916908315150217905550565b600d60029054906101000a900460ff1681565b6000600560008473ffffffffffffffffffffffffffffffffffffffff1673ffffffffffffffffffffffffffffffffffffffff16815260200190815260200160002060008373ffffffffffffffffffffffffffffffffffffffff1673ffffffffffffffffffffffffffffffffffffffff16815260200190815260200160002060009054906101000a900460ff16905092915050565b60085481565b6120ab61238b565b73ffffffffffffffffffffffffffffffffffffffff166120c9611a4a565b73ffffffffffffffffffffffffffffffffffffffff161461211f576040517f08c379a000000000000000000000000000000000000000000000000000000000815260040161211690613ee7565b60405180910390fd5b600061212b600761244c565b905061270f828261213c9190614098565b1061217c576040517f08c379a000000000000000000000000000000000000000000000000000000000815260040161217390613da7565b60405180910390fd5b60005b828110156121a25761218f6124a0565b808061219a90614318565b91505061217f565b505050565b6121af61238b565b73ffffffffffffffffffffffffffffffffffffffff166121cd611a4a565b73ffffffffffffffffffffffffffffffffffffffff1614612223576040517f08c379a000000000000000000000000000000000000000000000000000000000815260040161221a90613ee7565b60405180910390fd5b600073ffffffffffffffffffffffffffffffffffffffff168173ffffffffffffffffffffffffffffffffffffffff161415612293576040517f08c379a000000000000000000000000000000000000000000000000000000000815260040161228a90613ca7565b60405180910390fd5b61229c8161285f565b50565b6001816000016000828254019250508190555050565b60007f01ffc9a7000000000000000000000000000000000000000000000000000000007bffffffffffffffffffffffffffffffffffffffffffffffffffffffff1916827bffffffffffffffffffffffffffffffffffffffffffffffffffffffff1916149050919050565b60008073ffffffffffffffffffffffffffffffffffffffff166002600084815260200190815260200160002060009054906101000a900473ffffffffffffffffffffffffffffffffffffffff1673ffffffffffffffffffffffffffffffffffffffff1614159050919050565b600033905090565b816004600083815260200190815260200160002060006101000a81548173ffffffffffffffffffffffffffffffffffffffff021916908373ffffffffffffffffffffffffffffffffffffffff160217905550808273ffffffffffffffffffffffffffffffffffffffff1661240683611302565b73ffffffffffffffffffffffffffffffffffffffff167f8c5be1e5ebec7d5bd14f71427d1e84f3dd0314c0f7b2291e5b200ac8c7c3b92560405160405180910390a45050565b600081600001549050919050565b6000600183111561248b57826703782dace9d900008361247a91906141b4565b612484919061411f565b905061249a565b8183612497919061411f565b90505b92915050565b60006124ac600761244c565b90506124b8600761229f565b600e60003373ffffffffffffffffffffffffffffffffffffffff1673ffffffffffffffffffffffffffffffffffffffff168152602001908152602001600020600081548092919061250890614318565b91905055506125173382612d2d565b50565b60006125258261231f565b612564576040517f08c379a000000000000000000000000000000000000000000000000000000000815260040161255b90613dc7565b60405180910390fd5b600061256f83611302565b90508073ffffffffffffffffffffffffffffffffffffffff168473ffffffffffffffffffffffffffffffffffffffff1614806125de57508373ffffffffffffffffffffffffffffffffffffffff166125c6846108b9565b73ffffffffffffffffffffffffffffffffffffffff16145b806125ef57506125ee8185612009565b5b91505092915050565b8273ffffffffffffffffffffffffffffffffffffffff1661261882611302565b73ffffffffffffffffffffffffffffffffffffffff161461266e576040517f08c379a000000000000000000000000000000000000000000000000000000000815260040161266590613cc7565b60405180910390fd5b600073ffffffffffffffffffffffffffffffffffffffff168273ffffffffffffffffffffffffffffffffffffffff1614156126de576040517f08c379a00000000000000000000000000000000000000000000000000000000081526004016126d590613d47565b60405180910390fd5b6126e9838383612f07565b6126f4600082612393565b6001600360008573ffffffffffffffffffffffffffffffffffffffff1673ffffffffffffffffffffffffffffffffffffffff168152602001908152602001600020600082825461274491906141b4565b925050819055506001600360008473ffffffffffffffffffffffffffffffffffffffff1673ffffffffffffffffffffffffffffffffffffffff168152602001908152602001600020600082825461279b9190614098565b92505081905550816002600083815260200190815260200160002060006101000a81548173ffffffffffffffffffffffffffffffffffffffff021916908373ffffffffffffffffffffffffffffffffffffffff160217905550808273ffffffffffffffffffffffffffffffffffffffff168473ffffffffffffffffffffffffffffffffffffffff167fddf252ad1be2c89b69c2b068fc378daa952ba7f163c4a11628f55a4df523b3ef60405160405180910390a461285a838383612f0c565b505050565b6000600660009054906101000a900473ffffffffffffffffffffffffffffffffffffffff16905081600660006101000a81548173ffffffffffffffffffffffffffffffffffffffff021916908373ffffffffffffffffffffffffffffffffffffffff1602179055508173ffffffffffffffffffffffffffffffffffffffff168173ffffffffffffffffffffffffffffffffffffffff167f8be0079c531659141344cd1fd0a4f28419497f9722a3daafe3b4186f6b6457e060405160405180910390a35050565b8173ffffffffffffffffffffffffffffffffffffffff168373ffffffffffffffffffffffffffffffffffffffff161415612994576040517f08c379a000000000000000000000000000000000000000000000000000000000815260040161298b90613d67565b60405180910390fd5b80600560008573ffffffffffffffffffffffffffffffffffffffff1673ffffffffffffffffffffffffffffffffffffffff16815260200190815260200160002060008473ffffffffffffffffffffffffffffffffffffffff1673ffffffffffffffffffffffffffffffffffffffff16815260200190815260200160002060006101000a81548160ff0219169083151502179055508173ffffffffffffffffffffffffffffffffffffffff168373ffffffffffffffffffffffffffffffffffffffff167f17307eab39ab6107e8899845ad3d59bd9653f200f220920489ca2b5937696c3183604051612a859190613bef565b60405180910390a3505050565b612a9d8484846125f8565b612aa984848484612f11565b612ae8576040517f08c379a0000000000000000000000000000000000000000000000000000000008152600401612adf90613c87565b60405180910390fd5b50505050565b606060098054612afd906142b5565b80601f0160208091040260200160405190810160405280929190818152602001828054612b29906142b5565b8015612b765780601f10612b4b57610100808354040283529160200191612b76565b820191906000526020600020905b815481529060010190602001808311612b5957829003601f168201915b5050505050905090565b60606000821415612bc8576040518060400160405280600181526020017f30000000000000000000000000000000000000000000000000000000000000008152509050612d28565b600082905060005b60008214612bfa578080612be390614318565b915050600a82612bf391906140ee565b9150612bd0565b60008167ffffffffffffffff811115612c3c577f4e487b7100000000000000000000000000000000000000000000000000000000600052604160045260246000fd5b6040519080825280601f01601f191660200182016040528015612c6e5781602001600182028036833780820191505090505b5090505b60008514612d2157600182612c8791906141b4565b9150600a85612c96919061438b565b6030612ca29190614098565b60f81b818381518110612cde577f4e487b7100000000000000000000000000000000000000000000000000000000600052603260045260246000fd5b60200101907effffffffffffffffffffffffffffffffffffffffffffffffffffffffffffff1916908160001a905350600a85612d1a91906140ee565b9450612c72565b8093505050505b919050565b600073ffffffffffffffffffffffffffffffffffffffff168273ffffffffffffffffffffffffffffffffffffffff161415612d9d576040517f08c379a0000000000000000000000000000000000000000000000000000000008152600401612d9490613e87565b60405180910390fd5b612da68161231f565b15612de6576040517f08c379a0000000000000000000000000000000000000000000000000000000008152600401612ddd90613ce7565b60405180910390fd5b612df260008383612f07565b6001600360008473ffffffffffffffffffffffffffffffffffffffff1673ffffffffffffffffffffffffffffffffffffffff1681526020019081526020016000206000828254612e429190614098565b92505081905550816002600083815260200190815260200160002060006101000a81548173ffffffffffffffffffffffffffffffffffffffff021916908373ffffffffffffffffffffffffffffffffffffffff160217905550808273ffffffffffffffffffffffffffffffffffffffff16600073ffffffffffffffffffffffffffffffffffffffff167fddf252ad1be2c89b69c2b068fc378daa952ba7f163c4a11628f55a4df523b3ef60405160405180910390a4612f0360008383612f0c565b5050565b505050565b505050565b6000612f328473ffffffffffffffffffffffffffffffffffffffff166130a8565b1561309b578373ffffffffffffffffffffffffffffffffffffffff1663150b7a02612f5b61238b565b8786866040518563ffffffff1660e01b8152600401612f7d9493929190613ba3565b602060405180830381600087803b158015612f9757600080fd5b505af1925050508015612fc857506040513d601f19601f82011682018060405250810190612fc591906135df565b60015b61304b573d8060008114612ff8576040519150601f19603f3d011682016040523d82523d6000602084013e612ffd565b606091505b50600081511415613043576040517f08c379a000000000000000000000000000000000000000000000000000000000815260040161303a90613c87565b60405180910390fd5b805181602001fd5b63150b7a0260e01b7bffffffffffffffffffffffffffffffffffffffffffffffffffffffff1916817bffffffffffffffffffffffffffffffffffffffffffffffffffffffff1916149150506130a0565b600190505b949350505050565b6000808273ffffffffffffffffffffffffffffffffffffffff163b119050919050565b8280546130d7906142b5565b90600052602060002090601f0160209004810192826130f95760008555613140565b82601f1061311257805160ff1916838001178555613140565b82800160010185558215613140579182015b8281111561313f578251825591602001919060010190613124565b5b50905061314d9190613151565b5090565b5b8082111561316a576000816000905550600101613152565b5090565b600061318161317c84613fc7565b613fa2565b905080838252602082019050828560208602820111156131a057600080fd5b60005b858110156131d057816131b68882613367565b8452602084019350602083019250506001810190506131a3565b5050509392505050565b60006131ed6131e884613ff3565b613fa2565b90508281526020810184848401111561320557600080fd5b613210848285614273565b509392505050565b600061322b61322684614024565b613fa2565b90508281526020810184848401111561324357600080fd5b61324e848285614273565b509392505050565b60008135905061326581614acd565b92915050565b600082601f83011261327c57600080fd5b815161328c84826020860161316e565b91505092915050565b6000813590506132a481614ae4565b92915050565b6000815190506132b981614ae4565b92915050565b6000813590506132ce81614afb565b92915050565b6000813590506132e381614b12565b92915050565b6000815190506132f881614b12565b92915050565b600082601f83011261330f57600080fd5b813561331f8482602086016131da565b91505092915050565b600082601f83011261333957600080fd5b8135613349848260208601613218565b91505092915050565b60008135905061336181614b29565b92915050565b60008151905061337681614b29565b92915050565b60006020828403121561338e57600080fd5b600061339c84828501613256565b91505092915050565b600080604083850312156133b857600080fd5b60006133c685828601613256565b92505060206133d785828601613256565b9150509250929050565b6000806000606084860312156133f657600080fd5b600061340486828701613256565b935050602061341586828701613256565b925050604061342686828701613352565b9150509250925092565b6000806000806080858703121561344657600080fd5b600061345487828801613256565b945050602061346587828801613256565b935050604061347687828801613352565b925050606085013567ffffffffffffffff81111561349357600080fd5b61349f878288016132fe565b91505092959194509250565b600080604083850312156134be57600080fd5b60006134cc85828601613256565b92505060206134dd85828601613295565b9150509250929050565b600080604083850312156134fa57600080fd5b600061350885828601613256565b925050602061351985828601613352565b9150509250929050565b60006020828403121561353557600080fd5b600082015167ffffffffffffffff81111561354f57600080fd5b61355b8482850161326b565b91505092915050565b60006020828403121561357657600080fd5b6000613584848285016132aa565b91505092915050565b60006020828403121561359f57600080fd5b60006135ad848285016132bf565b91505092915050565b6000602082840312156135c857600080fd5b60006135d6848285016132d4565b91505092915050565b6000602082840312156135f157600080fd5b60006135ff848285016132e9565b91505092915050565b60006020828403121561361a57600080fd5b600082013567ffffffffffffffff81111561363457600080fd5b61364084828501613328565b91505092915050565b60006020828403121561365b57600080fd5b600061366984828501613352565b91505092915050565b60006020828403121561368457600080fd5b600061369284828501613367565b91505092915050565b6136a4816141e8565b82525050565b6136b3816141fa565b82525050565b6136c281614206565b82525050565b60006136d382614055565b6136dd818561406b565b93506136ed818560208601614282565b6136f681614478565b840191505092915050565b600061370c82614060565b613716818561407c565b9350613726818560208601614282565b61372f81614478565b840191505092915050565b600061374582614060565b61374f818561408d565b935061375f818560208601614282565b80840191505092915050565b600061377860188361407c565b915061378382614489565b602082019050919050565b600061379b60108361407c565b91506137a6826144b2565b602082019050919050565b60006137be60328361407c565b91506137c9826144db565b604082019050919050565b60006137e160268361407c565b91506137ec8261452a565b604082019050919050565b600061380460258361407c565b915061380f82614579565b604082019050919050565b6000613827601c8361407c565b9150613832826145c8565b602082019050919050565b600061384a60118361407c565b9150613855826145f1565b602082019050919050565b600061386d60178361407c565b91506138788261461a565b602082019050919050565b600061389060248361407c565b915061389b82614643565b604082019050919050565b60006138b360198361407c565b91506138be82614692565b602082019050919050565b60006138d6601a8361407c565b91506138e1826146bb565b602082019050919050565b60006138f960148361407c565b9150613904826146e4565b602082019050919050565b600061391c602c8361407c565b91506139278261470d565b604082019050919050565b600061393f60148361407c565b915061394a8261475c565b602082019050919050565b600061396260388361407c565b915061396d82614785565b604082019050919050565b6000613985602a8361407c565b9150613990826147d4565b604082019050919050565b60006139a860298361407c565b91506139b382614823565b604082019050919050565b60006139cb601e8361407c565b91506139d682614872565b602082019050919050565b60006139ee60208361407c565b91506139f98261489b565b602082019050919050565b6000613a11602c8361407c565b9150613a1c826148c4565b604082019050919050565b6000613a3460058361408d565b9150613a3f82614913565b600582019050919050565b6000613a5760178361407c565b9150613a628261493c565b602082019050919050565b6000613a7a60208361407c565b9150613a8582614965565b602082019050919050565b6000613a9d602f8361407c565b9150613aa88261498e565b604082019050919050565b6000613ac060218361407c565b9150613acb826149dd565b604082019050919050565b6000613ae360128361407c565b9150613aee82614a2c565b602082019050919050565b6000613b0660318361407c565b9150613b1182614a55565b604082019050919050565b6000613b2960018361408d565b9150613b3482614aa4565b600182019050919050565b613b488161425c565b82525050565b6000613b5a828561373a565b9150613b6582613b1c565b9150613b71828461373a565b9150613b7c82613a27565b91508190509392505050565b6000602082019050613b9d600083018461369b565b92915050565b6000608082019050613bb8600083018761369b565b613bc5602083018661369b565b613bd26040830185613b3f565b8181036060830152613be481846136c8565b905095945050505050565b6000602082019050613c0460008301846136aa565b92915050565b6000602082019050613c1f60008301846136b9565b92915050565b60006020820190508181036000830152613c3f8184613701565b905092915050565b60006020820190508181036000830152613c608161376b565b9050919050565b60006020820190508181036000830152613c808161378e565b9050919050565b60006020820190508181036000830152613ca0816137b1565b9050919050565b60006020820190508181036000830152613cc0816137d4565b9050919050565b60006020820190508181036000830152613ce0816137f7565b9050919050565b60006020820190508181036000830152613d008161381a565b9050919050565b60006020820190508181036000830152613d208161383d565b9050919050565b60006020820190508181036000830152613d4081613860565b9050919050565b60006020820190508181036000830152613d6081613883565b9050919050565b60006020820190508181036000830152613d80816138a6565b9050919050565b60006020820190508181036000830152613da0816138c9565b9050919050565b60006020820190508181036000830152613dc0816138ec565b9050919050565b60006020820190508181036000830152613de08161390f565b9050919050565b60006020820190508181036000830152613e0081613932565b9050919050565b60006020820190508181036000830152613e2081613955565b9050919050565b60006020820190508181036000830152613e4081613978565b9050919050565b60006020820190508181036000830152613e608161399b565b9050919050565b60006020820190508181036000830152613e80816139be565b9050919050565b60006020820190508181036000830152613ea0816139e1565b9050919050565b60006020820190508181036000830152613ec081613a04565b9050919050565b60006020820190508181036000830152613ee081613a4a565b9050919050565b60006020820190508181036000830152613f0081613a6d565b9050919050565b60006020820190508181036000830152613f2081613a90565b9050919050565b60006020820190508181036000830152613f4081613ab3565b9050919050565b60006020820190508181036000830152613f6081613ad6565b9050919050565b60006020820190508181036000830152613f8081613af9565b9050919050565b6000602082019050613f9c6000830184613b3f565b92915050565b6000613fac613fbd565b9050613fb882826142e7565b919050565b6000604051905090565b600067ffffffffffffffff821115613fe257613fe1614449565b5b602082029050602081019050919050565b600067ffffffffffffffff82111561400e5761400d614449565b5b61401782614478565b9050602081019050919050565b600067ffffffffffffffff82111561403f5761403e614449565b5b61404882614478565b9050602081019050919050565b600081519050919050565b600081519050919050565b600082825260208201905092915050565b600082825260208201905092915050565b600081905092915050565b60006140a38261425c565b91506140ae8361425c565b9250827fffffffffffffffffffffffffffffffffffffffffffffffffffffffffffffffff038211156140e3576140e26143bc565b5b828201905092915050565b60006140f98261425c565b91506141048361425c565b925082614114576141136143eb565b5b828204905092915050565b600061412a8261425c565b91506141358361425c565b9250817fffffffffffffffffffffffffffffffffffffffffffffffffffffffffffffffff048311821515161561416e5761416d6143bc565b5b828202905092915050565b600061418482614266565b915061418f83614266565b92508160ff04831182151516156141a9576141a86143bc565b5b828202905092915050565b60006141bf8261425c565b91506141ca8361425c565b9250828210156141dd576141dc6143bc565b5b828203905092915050565b60006141f38261423c565b9050919050565b60008115159050919050565b6000819050919050565b60007fffffffff0000000000000000000000000000000000000000000000000000000082169050919050565b600073ffffffffffffffffffffffffffffffffffffffff82169050919050565b6000819050919050565b600060ff82169050919050565b82818337600083830152505050565b60005b838110156142a0578082015181840152602081019050614285565b838111156142af576000848401525b50505050565b600060028204905060018216806142cd57607f821691505b602082108114156142e1576142e061441a565b5b50919050565b6142f082614478565b810181811067ffffffffffffffff8211171561430f5761430e614449565b5b80604052505050565b60006143238261425c565b91507fffffffffffffffffffffffffffffffffffffffffffffffffffffffffffffffff821415614356576143556143bc565b5b600182019050919050565b600061436c82614266565b915060ff8214156143805761437f6143bc565b5b600182019050919050565b60006143968261425c565b91506143a18361425c565b9250826143b1576143b06143eb565b5b828206905092915050565b7f4e487b7100000000000000000000000000000000000000000000000000000000600052601160045260246000fd5b7f4e487b7100000000000000000000000000000000000000000000000000000000600052601260045260246000fd5b7f4e487b7100000000000000000000000000000000000000000000000000000000600052602260045260246000fd5b7f4e487b7100000000000000000000000000000000000000000000000000000000600052604160045260246000fd5b6000601f19601f8301169050919050565b7f596f752068617665206e6f7420476f6c64656e20506173730000000000000000600082015250565b7f4e6f7420656e6f756768206d6f6e657900000000000000000000000000000000600082015250565b7f4552433732313a207472616e7366657220746f206e6f6e20455243373231526560008201527f63656976657220696d706c656d656e7465720000000000000000000000000000602082015250565b7f4f776e61626c653a206e6577206f776e657220697320746865207a65726f206160008201527f6464726573730000000000000000000000000000000000000000000000000000602082015250565b7f4552433732313a207472616e736665722066726f6d20696e636f72726563742060008201527f6f776e6572000000000000000000000000000000000000000000000000000000602082015250565b7f4552433732313a20746f6b656e20616c7265616479206d696e74656400000000600082015250565b7f4578636565647320616c6c6f77616e6365000000000000000000000000000000600082015250565b7f4f472073616c6520686176656e27742073746172746564000000000000000000600082015250565b7f4552433732313a207472616e7366657220746f20746865207a65726f2061646460008201527f7265737300000000000000000000000000000000000000000000000000000000602082015250565b7f4552433732313a20617070726f766520746f2063616c6c657200000000000000600082015250565b7f5075626c696373616c6520686176656e27742073746172746564000000000000600082015250565b7f4578636565647320746f74616c20737570706c79000000000000000000000000600082015250565b7f4552433732313a206f70657261746f7220717565727920666f72206e6f6e657860008201527f697374656e7420746f6b656e0000000000000000000000000000000000000000602082015250565b7f596f7520686176656e2774206d696e7450617373000000000000000000000000600082015250565b7f4552433732313a20617070726f76652063616c6c6572206973206e6f74206f7760008201527f6e6572206e6f7220617070726f76656420666f7220616c6c0000000000000000602082015250565b7f4552433732313a2062616c616e636520717565727920666f7220746865207a6560008201527f726f206164647265737300000000000000000000000000000000000000000000602082015250565b7f4552433732313a206f776e657220717565727920666f72206e6f6e657869737460008201527f656e7420746f6b656e0000000000000000000000000000000000000000000000602082015250565b7f596f7520646f6e74206861766520656e6f756768206d696e7420706173730000600082015250565b7f4552433732313a206d696e7420746f20746865207a65726f2061646472657373600082015250565b7f4552433732313a20617070726f76656420717565727920666f72206e6f6e657860008201527f697374656e7420746f6b656e0000000000000000000000000000000000000000602082015250565b7f2e6a736f6e000000000000000000000000000000000000000000000000000000600082015250565b7f50726573616c6520686176656e27742073746172746564000000000000000000600082015250565b7f4f776e61626c653a2063616c6c6572206973206e6f7420746865206f776e6572600082015250565b7f4552433732314d657461646174613a2055524920717565727920666f72206e6f60008201527f6e6578697374656e7420746f6b656e0000000000000000000000000000000000602082015250565b7f4552433732313a20617070726f76616c20746f2063757272656e74206f776e6560008201527f7200000000000000000000000000000000000000000000000000000000000000602082015250565b7f4e6f7420616c6c6f776564206f726967696e0000000000000000000000000000600082015250565b7f4552433732313a207472616e736665722063616c6c6572206973206e6f74206f60008201527f776e6572206e6f7220617070726f766564000000000000000000000000000000602082015250565b7f2f00000000000000000000000000000000000000000000000000000000000000600082015250565b614ad6816141e8565b8114614ae157600080fd5b50565b614aed816141fa565b8114614af857600080fd5b50565b614b0481614206565b8114614b0f57600080fd5b50565b614b1b81614210565b8114614b2657600080fd5b50565b614b328161425c565b8114614b3d57600080fd5b5056fea264697066735822122052b00604c525fe674f05609b3e7789e517a8c76e023ab015e368ce02e7c18ae264736f6c63430008040033",
  "linkReferences": {},
  "deployedLinkReferences": {}
}