{
  "_format": "hh-sol-artifact-1",
  "contractName": "mintPass",
  "sourceName": "contracts/mintPass.sol",
  "abi": [
    {
      "inputs": [
        {
          "internalType": "string",
          "name": "name",
          "type": "string"
        },
        {
          "internalType": "string",
          "name": "symbol",
          "type": "string"
        },
        {
          "internalType": "string",
          "name": "_GOLD_BASE_URI",
          "type": "string"
        },
        {
          "internalType": "string",
          "name": "_SILVER_BASE_URI",
          "type": "string"
        },
        {
          "internalType": "bytes32",
          "name": "_GOLDEN_ROOT",
          "type": "bytes32"
        },
        {
          "internalType": "bytes32",
          "name": "_SILVER_ROOT",
          "type": "bytes32"
        }
      ],
      "stateMutability": "nonpayable",
      "type": "constructor"
    },
    {
      "inputs": [],
      "name": "InvalidMerkleProof",
      "type": "error"
    },
    {
      "anonymous": false,
      "inputs": [
        {
          "indexed": true,
          "internalType": "address",
          "name": "owner",
          "type": "address"
        },
        {
          "indexed": true,
          "internalType": "address",
          "name": "approved",
          "type": "address"
        },
        {
          "indexed": true,
          "internalType": "uint256",
          "name": "tokenId",
          "type": "uint256"
        }
      ],
      "name": "Approval",
      "type": "event"
    },
    {
      "anonymous": false,
      "inputs": [
        {
          "indexed": true,
          "internalType": "address",
          "name": "owner",
          "type": "address"
        },
        {
          "indexed": true,
          "internalType": "address",
          "name": "operator",
          "type": "address"
        },
        {
          "indexed": false,
          "internalType": "bool",
          "name": "approved",
          "type": "bool"
        }
      ],
      "name": "ApprovalForAll",
      "type": "event"
    },
    {
      "anonymous": false,
      "inputs": [
        {
          "indexed": true,
          "internalType": "address",
          "name": "previousOwner",
          "type": "address"
        },
        {
          "indexed": true,
          "internalType": "address",
          "name": "newOwner",
          "type": "address"
        }
      ],
      "name": "OwnershipTransferred",
      "type": "event"
    },
    {
      "anonymous": false,
      "inputs": [
        {
          "indexed": true,
          "internalType": "address",
          "name": "from",
          "type": "address"
        },
        {
          "indexed": true,
          "internalType": "address",
          "name": "to",
          "type": "address"
        },
        {
          "indexed": true,
          "internalType": "uint256",
          "name": "tokenId",
          "type": "uint256"
        }
      ],
      "name": "Transfer",
      "type": "event"
    },
    {
      "inputs": [],
      "name": "GOLDEN_ROOT",
      "outputs": [
        {
          "internalType": "bytes32",
          "name": "",
          "type": "bytes32"
        }
      ],
      "stateMutability": "view",
      "type": "function"
    },
    {
      "inputs": [],
      "name": "IS_SALE_ACTIVE",
      "outputs": [
        {
          "internalType": "bool",
          "name": "",
          "type": "bool"
        }
      ],
      "stateMutability": "view",
      "type": "function"
    },
    {
      "inputs": [],
      "name": "MAX_SUPPLY",
      "outputs": [
        {
          "internalType": "uint256",
          "name": "",
          "type": "uint256"
        }
      ],
      "stateMutability": "view",
      "type": "function"
    },
    {
      "inputs": [],
      "name": "SILVER_ROOT",
      "outputs": [
        {
          "internalType": "bytes32",
          "name": "",
          "type": "bytes32"
        }
      ],
      "stateMutability": "view",
      "type": "function"
    },
    {
      "inputs": [
        {
          "internalType": "address",
          "name": "to",
          "type": "address"
        },
        {
          "internalType": "uint256",
          "name": "tokenId",
          "type": "uint256"
        }
      ],
      "name": "approve",
      "outputs": [],
      "stateMutability": "nonpayable",
      "type": "function"
    },
    {
      "inputs": [
        {
          "internalType": "address",
          "name": "owner",
          "type": "address"
        }
      ],
      "name": "balanceOf",
      "outputs": [
        {
          "internalType": "uint256",
          "name": "",
          "type": "uint256"
        }
      ],
      "stateMutability": "view",
      "type": "function"
    },
    {
      "inputs": [
        {
          "internalType": "uint256",
          "name": "tokenId",
          "type": "uint256"
        }
      ],
      "name": "burn",
      "outputs": [],
      "stateMutability": "nonpayable",
      "type": "function"
    },
    {
      "inputs": [
        {
          "internalType": "uint256",
          "name": "tokenId",
          "type": "uint256"
        }
      ],
      "name": "getApproved",
      "outputs": [
        {
          "internalType": "address",
          "name": "",
          "type": "address"
        }
      ],
      "stateMutability": "view",
      "type": "function"
    },
    {
      "inputs": [
        {
          "internalType": "address",
          "name": "owner",
          "type": "address"
        },
        {
          "internalType": "address",
          "name": "operator",
          "type": "address"
        }
      ],
      "name": "isApprovedForAll",
      "outputs": [
        {
          "internalType": "bool",
          "name": "",
          "type": "bool"
        }
      ],
      "stateMutability": "view",
      "type": "function"
    },
    {
      "inputs": [
        {
          "internalType": "uint256",
          "name": "tokenId",
          "type": "uint256"
        }
      ],
      "name": "isGold",
      "outputs": [
        {
          "internalType": "bool",
          "name": "",
          "type": "bool"
        }
      ],
      "stateMutability": "view",
      "type": "function"
    },
    {
      "inputs": [],
      "name": "name",
      "outputs": [
        {
          "internalType": "string",
          "name": "",
          "type": "string"
        }
      ],
      "stateMutability": "view",
      "type": "function"
    },
    {
      "inputs": [],
      "name": "owner",
      "outputs": [
        {
          "internalType": "address",
          "name": "",
          "type": "address"
        }
      ],
      "stateMutability": "view",
      "type": "function"
    },
    {
      "inputs": [
        {
          "internalType": "uint256",
          "name": "numberOfTokens",
          "type": "uint256"
        },
        {
          "internalType": "bool",
          "name": "_isGold",
          "type": "bool"
        }
      ],
      "name": "ownerMint",
      "outputs": [],
      "stateMutability": "nonpayable",
      "type": "function"
    },
    {
      "inputs": [
        {
          "internalType": "uint256",
          "name": "tokenId",
          "type": "uint256"
        }
      ],
      "name": "ownerOf",
      "outputs": [
        {
          "internalType": "address",
          "name": "",
          "type": "address"
        }
      ],
      "stateMutability": "view",
      "type": "function"
    },
    {
      "inputs": [
        {
          "internalType": "uint256",
          "name": "allowance",
          "type": "uint256"
        },
        {
          "internalType": "uint256",
          "name": "quantity",
          "type": "uint256"
        },
        {
          "internalType": "bytes32[]",
          "name": "proof",
          "type": "bytes32[]"
        }
      ],
      "name": "privateSale",
      "outputs": [],
      "stateMutability": "nonpayable",
      "type": "function"
    },
    {
      "inputs": [],
      "name": "renounceOwnership",
      "outputs": [],
      "stateMutability": "nonpayable",
      "type": "function"
    },
    {
      "inputs": [
        {
          "internalType": "address",
          "name": "from",
          "type": "address"
        },
        {
          "internalType": "address",
          "name": "to",
          "type": "address"
        },
        {
          "internalType": "uint256",
          "name": "tokenId",
          "type": "uint256"
        }
      ],
      "name": "safeTransferFrom",
      "outputs": [],
      "stateMutability": "nonpayable",
      "type": "function"
    },
    {
      "inputs": [
        {
          "internalType": "address",
          "name": "from",
          "type": "address"
        },
        {
          "internalType": "address",
          "name": "to",
          "type": "address"
        },
        {
          "internalType": "uint256",
          "name": "tokenId",
          "type": "uint256"
        },
        {
          "internalType": "bytes",
          "name": "_data",
          "type": "bytes"
        }
      ],
      "name": "safeTransferFrom",
      "outputs": [],
      "stateMutability": "nonpayable",
      "type": "function"
    },
    {
      "inputs": [
        {
          "internalType": "address",
          "name": "operator",
          "type": "address"
        },
        {
          "internalType": "bool",
          "name": "approved",
          "type": "bool"
        }
      ],
      "name": "setApprovalForAll",
      "outputs": [],
      "stateMutability": "nonpayable",
      "type": "function"
    },
    {
      "inputs": [
        {
          "internalType": "string",
          "name": "newUri",
          "type": "string"
        }
      ],
      "name": "setGoldenBaseURI",
      "outputs": [],
      "stateMutability": "nonpayable",
      "type": "function"
    },
    {
      "inputs": [
        {
          "internalType": "bytes32",
          "name": "_GOLDEN_ROOT",
          "type": "bytes32"
        }
      ],
      "name": "setMerkleGoldenRoot",
      "outputs": [],
      "stateMutability": "nonpayable",
      "type": "function"
    },
    {
      "inputs": [
        {
          "internalType": "bytes32",
          "name": "_SILVER_ROOT",
          "type": "bytes32"
        }
      ],
      "name": "setMerkleSilverRoot",
      "outputs": [],
      "stateMutability": "nonpayable",
      "type": "function"
    },
    {
      "inputs": [
        {
          "internalType": "string",
          "name": "newUri",
          "type": "string"
        }
      ],
      "name": "setSilverBaseURI",
      "outputs": [],
      "stateMutability": "nonpayable",
      "type": "function"
    },
    {
      "inputs": [
        {
          "internalType": "bytes4",
          "name": "interfaceId",
          "type": "bytes4"
        }
      ],
      "name": "supportsInterface",
      "outputs": [
        {
          "internalType": "bool",
          "name": "",
          "type": "bool"
        }
      ],
      "stateMutability": "view",
      "type": "function"
    },
    {
      "inputs": [],
      "name": "symbol",
      "outputs": [
        {
          "internalType": "string",
          "name": "",
          "type": "string"
        }
      ],
      "stateMutability": "view",
      "type": "function"
    },
    {
      "inputs": [],
      "name": "toggleSale",
      "outputs": [],
      "stateMutability": "nonpayable",
      "type": "function"
    },
    {
      "inputs": [
        {
          "internalType": "uint256",
          "name": "index",
          "type": "uint256"
        }
      ],
      "name": "tokenByIndex",
      "outputs": [
        {
          "internalType": "uint256",
          "name": "",
          "type": "uint256"
        }
      ],
      "stateMutability": "view",
      "type": "function"
    },
    {
      "inputs": [
        {
          "internalType": "address",
          "name": "owner",
          "type": "address"
        },
        {
          "internalType": "uint256",
          "name": "index",
          "type": "uint256"
        }
      ],
      "name": "tokenOfOwnerByIndex",
      "outputs": [
        {
          "internalType": "uint256",
          "name": "",
          "type": "uint256"
        }
      ],
      "stateMutability": "view",
      "type": "function"
    },
    {
      "inputs": [
        {
          "internalType": "uint256",
          "name": "tokenId",
          "type": "uint256"
        }
      ],
      "name": "tokenURI",
      "outputs": [
        {
          "internalType": "string",
          "name": "",
          "type": "string"
        }
      ],
      "stateMutability": "view",
      "type": "function"
    },
    {
      "inputs": [
        {
          "internalType": "address",
          "name": "_owner",
          "type": "address"
        }
      ],
      "name": "tokensOfOwner",
      "outputs": [
        {
          "internalType": "uint256[]",
          "name": "",
          "type": "uint256[]"
        }
      ],
      "stateMutability": "view",
      "type": "function"
    },
    {
      "inputs": [],
      "name": "totalSupply",
      "outputs": [
        {
          "internalType": "uint256",
          "name": "",
          "type": "uint256"
        }
      ],
      "stateMutability": "view",
      "type": "function"
    },
    {
      "inputs": [
        {
          "internalType": "address",
          "name": "from",
          "type": "address"
        },
        {
          "internalType": "address",
          "name": "to",
          "type": "address"
        },
        {
          "internalType": "uint256",
          "name": "tokenId",
          "type": "uint256"
        }
      ],
      "name": "transferFrom",
      "outputs": [],
      "stateMutability": "nonpayable",
      "type": "function"
    },
    {
      "inputs": [
        {
          "internalType": "address",
          "name": "newOwner",
          "type": "address"
        }
      ],
      "name": "transferOwnership",
      "outputs": [],
      "stateMutability": "nonpayable",
      "type": "function"
    }
  ],
  "bytecode": "0x60806040526000600e60006101000a81548160ff0219169083151502179055503480156200002c57600080fd5b5060405162004c6b38038062004c6b833981810160405281019062000052919062000328565b858581600090805190602001906200006c929190620001ef565b50806001908051906020019062000085929190620001ef565b505050620000a86200009c6200010b60201b60201c565b6200011360201b60201c565b8360119080519060200190620000c0929190620001ef565b508260129080519060200190620000d9929190620001ef565b5081600c8190555080600d81905550620000ff600b620001d960201b620019821760201c565b505050505050620005b6565b600033905090565b6000600a60009054906101000a900473ffffffffffffffffffffffffffffffffffffffff16905081600a60006101000a81548173ffffffffffffffffffffffffffffffffffffffff021916908373ffffffffffffffffffffffffffffffffffffffff1602179055508173ffffffffffffffffffffffffffffffffffffffff168173ffffffffffffffffffffffffffffffffffffffff167f8be0079c531659141344cd1fd0a4f28419497f9722a3daafe3b4186f6b6457e060405160405180910390a35050565b6001816000016000828254019250508190555050565b828054620001fd90620004c1565b90600052602060002090601f0160209004810192826200022157600085556200026d565b82601f106200023c57805160ff19168380011785556200026d565b828001600101855582156200026d579182015b828111156200026c5782518255916020019190600101906200024f565b5b5090506200027c919062000280565b5090565b5b808211156200029b57600081600090555060010162000281565b5090565b6000620002b6620002b0846200044b565b62000422565b905082815260208101848484011115620002cf57600080fd5b620002dc8482856200048b565b509392505050565b600081519050620002f5816200059c565b92915050565b600082601f8301126200030d57600080fd5b81516200031f8482602086016200029f565b91505092915050565b60008060008060008060c087890312156200034257600080fd5b600087015167ffffffffffffffff8111156200035d57600080fd5b6200036b89828a01620002fb565b965050602087015167ffffffffffffffff8111156200038957600080fd5b6200039789828a01620002fb565b955050604087015167ffffffffffffffff811115620003b557600080fd5b620003c389828a01620002fb565b945050606087015167ffffffffffffffff811115620003e157600080fd5b620003ef89828a01620002fb565b93505060806200040289828a01620002e4565b92505060a06200041589828a01620002e4565b9150509295509295509295565b60006200042e62000441565b90506200043c8282620004f7565b919050565b6000604051905090565b600067ffffffffffffffff8211156200046957620004686200055c565b5b62000474826200058b565b9050602081019050919050565b6000819050919050565b60005b83811015620004ab5780820151818401526020810190506200048e565b83811115620004bb576000848401525b50505050565b60006002820490506001821680620004da57607f821691505b60208210811415620004f157620004f06200052d565b5b50919050565b62000502826200058b565b810181811067ffffffffffffffff821117156200052457620005236200055c565b5b80604052505050565b7f4e487b7100000000000000000000000000000000000000000000000000000000600052602260045260246000fd5b7f4e487b7100000000000000000000000000000000000000000000000000000000600052604160045260246000fd5b6000601f19601f8301169050919050565b620005a78162000481565b8114620005b357600080fd5b50565b6146a580620005c66000396000f3fe608060405234801561001057600080fd5b50600436106101fb5760003560e01c80636f37b83f1161011a5780638e076582116100ad578063b88d4fde1161007c578063b88d4fde1461059c578063c87b56dd146105b8578063c8ce58f8146105e8578063e985e9c514610604578063f2fde38b14610634576101fb565b80638e0765821461052a57806395d89b4114610546578063a22cb46514610564578063b157a3f614610580576101fb565b806378fbbcd4116100e957806378fbbcd4146104b65780637d8966e4146104d25780638462151c146104dc5780638da5cb5b1461050c576101fb565b80636f37b83f1461044257806370a082311461045e578063715018a61461048e57806376d02b7114610498576101fb565b806332cb6b0c116101925780634f6ccce7116101615780634f6ccce7146103a857806354a2005b146103d85780636352211e146103f6578063642eb6d214610426576101fb565b806332cb6b0c1461032257806342842e0e1461034057806342966c681461035c5780634878f78f14610378576101fb565b8063095ea7b3116101ce578063095ea7b31461029c57806318160ddd146102b857806323b872dd146102d65780632f745c59146102f2576101fb565b806301ffc9a71461020057806306cf7c3c1461023057806306fdde031461024e578063081812fc1461026c575b600080fd5b61021a60048036038101906102159190613214565b610650565b60405161022791906138d6565b60405180910390f35b6102386106ca565b60405161024591906138f1565b60405180910390f35b6102566106d0565b604051610263919061390c565b60405180910390f35b610286600480360381019061028191906132a7565b610762565b604051610293919061384d565b60405180910390f35b6102b660048036038101906102b191906131af565b6107e7565b005b6102c06108ff565b6040516102cd9190613c2e565b60405180910390f35b6102f060048036038101906102eb91906130a9565b61091c565b005b61030c600480360381019061030791906131af565b61097c565b6040516103199190613c2e565b60405180910390f35b61032a610a21565b6040516103379190613c2e565b60405180910390f35b61035a600480360381019061035591906130a9565b610a27565b005b610376600480360381019061037191906132a7565b610a47565b005b610392600480360381019061038d91906132a7565b610aad565b60405161039f91906138d6565b60405180910390f35b6103c260048036038101906103bd91906132a7565b610ad7565b6040516103cf9190613c2e565b60405180910390f35b6103e0610b6e565b6040516103ed91906138f1565b60405180910390f35b610410600480360381019061040b91906132a7565b610b74565b60405161041d919061384d565b60405180910390f35b610440600480360381019061043b919061330c565b610c26565b005b61045c600480360381019061045791906131eb565b610e78565b005b61047860048036038101906104739190613044565b610efe565b6040516104859190613c2e565b60405180910390f35b610496610fb6565b005b6104a061103e565b6040516104ad91906138d6565b60405180910390f35b6104d060048036038101906104cb9190613266565b611051565b005b6104da6110e7565b005b6104f660048036038101906104f19190613044565b61118f565b60405161050391906138b4565b60405180910390f35b61051461130b565b604051610521919061384d565b60405180910390f35b610544600480360381019061053f91906132d0565b611335565b005b61054e61143b565b60405161055b919061390c565b60405180910390f35b61057e60048036038101906105799190613173565b6114cd565b005b61059a600480360381019061059591906131eb565b6114e3565b005b6105b660048036038101906105b191906130f8565b611569565b005b6105d260048036038101906105cd91906132a7565b6115cb565b6040516105df919061390c565b60405180910390f35b61060260048036038101906105fd9190613266565b611760565b005b61061e6004803603810190610619919061306d565b6117f6565b60405161062b91906138d6565b60405180910390f35b61064e60048036038101906106499190613044565b61188a565b005b60007f780e9d63000000000000000000000000000000000000000000000000000000007bffffffffffffffffffffffffffffffffffffffffffffffffffffffff1916827bffffffffffffffffffffffffffffffffffffffffffffffffffffffff191614806106c357506106c282611998565b5b9050919050565b600d5481565b6060600080546106df90613e8b565b80601f016020809104026020016040519081016040528092919081815260200182805461070b90613e8b565b80156107585780601f1061072d57610100808354040283529160200191610758565b820191906000526020600020905b81548152906001019060200180831161073b57829003601f168201915b5050505050905090565b600061076d82611a7a565b6107ac576040517f08c379a00000000000000000000000000000000000000000000000000000000081526004016107a390613b2e565b60405180910390fd5b6004600083815260200190815260200160002060009054906101000a900473ffffffffffffffffffffffffffffffffffffffff169050919050565b60006107f282610b74565b90508073ffffffffffffffffffffffffffffffffffffffff168373ffffffffffffffffffffffffffffffffffffffff161415610863576040517f08c379a000000000000000000000000000000000000000000000000000000000815260040161085a90613bae565b60405180910390fd5b8073ffffffffffffffffffffffffffffffffffffffff16610882611ae6565b73ffffffffffffffffffffffffffffffffffffffff1614806108b157506108b0816108ab611ae6565b6117f6565b5b6108f0576040517f08c379a00000000000000000000000000000000000000000000000000000000081526004016108e790613a8e565b60405180910390fd5b6108fa8383611aee565b505050565b6000600161090d600b611ba7565b6109179190613d97565b905090565b61092d610927611ae6565b82611bb5565b61096c576040517f08c379a000000000000000000000000000000000000000000000000000000000815260040161096390613bee565b60405180910390fd5b610977838383611c93565b505050565b600061098783610efe565b82106109c8576040517f08c379a00000000000000000000000000000000000000000000000000000000081526004016109bf9061392e565b60405180910390fd5b600660008473ffffffffffffffffffffffffffffffffffffffff1673ffffffffffffffffffffffffffffffffffffffff168152602001908152602001600020600083815260200190815260200160002054905092915050565b61270f81565b610a4283838360405180602001604052806000815250611569565b505050565b610a58610a52611ae6565b82611bb5565b610a97576040517f08c379a0000000000000000000000000000000000000000000000000000000008152600401610a8e90613b8e565b60405180910390fd5b610aa081611efa565b610aaa600b612017565b50565b60006010600083815260200190815260200160002060009054906101000a900460ff169050919050565b6000610ae1612073565b8210610b22576040517f08c379a0000000000000000000000000000000000000000000000000000000008152600401610b1990613c0e565b60405180910390fd5b60088281548110610b5c577f4e487b7100000000000000000000000000000000000000000000000000000000600052603260045260246000fd5b90600052602060002001549050919050565b600c5481565b6000806002600084815260200190815260200160002060009054906101000a900473ffffffffffffffffffffffffffffffffffffffff169050600073ffffffffffffffffffffffffffffffffffffffff168173ffffffffffffffffffffffffffffffffffffffff161415610c1d576040517f08c379a0000000000000000000000000000000000000000000000000000000008152600401610c1490613ace565b60405180910390fd5b80915050919050565b3273ffffffffffffffffffffffffffffffffffffffff163373ffffffffffffffffffffffffffffffffffffffff1614610c94576040517f08c379a0000000000000000000000000000000000000000000000000000000008152600401610c8b90613bce565b60405180910390fd5b600e60009054906101000a900460ff16610ce3576040517f08c379a0000000000000000000000000000000000000000000000000000000008152600401610cda90613aee565b60405180910390fd5b8383600f60003373ffffffffffffffffffffffffffffffffffffffff1673ffffffffffffffffffffffffffffffffffffffff16815260200190815260200160002054610d2f9190613d41565b1115610d70576040517f08c379a0000000000000000000000000000000000000000000000000000000008152600401610d67906139ee565b60405180910390fd5b6000610d7c600b611ba7565b905061270f8110610dc2576040517f08c379a0000000000000000000000000000000000000000000000000000000008152600401610db990613a4e565b60405180910390fd5b610dcd838387612080565b15610e005760005b84811015610dfa57610de760016120e2565b8080610df290613eee565b915050610dd5565b50610e71565b610e0b838387612188565b15610e3e5760005b84811015610e3857610e2560006120e2565b8080610e3090613eee565b915050610e13565b50610e70565b6040517fb05e92fa00000000000000000000000000000000000000000000000000000000815260040160405180910390fd5b5b5050505050565b610e80611ae6565b73ffffffffffffffffffffffffffffffffffffffff16610e9e61130b565b73ffffffffffffffffffffffffffffffffffffffff1614610ef4576040517f08c379a0000000000000000000000000000000000000000000000000000000008152600401610eeb90613b4e565b60405180910390fd5b80600c8190555050565b60008073ffffffffffffffffffffffffffffffffffffffff168273ffffffffffffffffffffffffffffffffffffffff161415610f6f576040517f08c379a0000000000000000000000000000000000000000000000000000000008152600401610f6690613aae565b60405180910390fd5b600360008373ffffffffffffffffffffffffffffffffffffffff1673ffffffffffffffffffffffffffffffffffffffff168152602001908152602001600020549050919050565b610fbe611ae6565b73ffffffffffffffffffffffffffffffffffffffff16610fdc61130b565b73ffffffffffffffffffffffffffffffffffffffff1614611032576040517f08c379a000000000000000000000000000000000000000000000000000000000815260040161102990613b4e565b60405180910390fd5b61103c60006121ea565b565b600e60009054906101000a900460ff1681565b611059611ae6565b73ffffffffffffffffffffffffffffffffffffffff1661107761130b565b73ffffffffffffffffffffffffffffffffffffffff16146110cd576040517f08c379a00000000000000000000000000000000000000000000000000000000081526004016110c490613b4e565b60405180910390fd5b80601190805190602001906110e3929190612e09565b5050565b6110ef611ae6565b73ffffffffffffffffffffffffffffffffffffffff1661110d61130b565b73ffffffffffffffffffffffffffffffffffffffff1614611163576040517f08c379a000000000000000000000000000000000000000000000000000000000815260040161115a90613b4e565b60405180910390fd5b600e60009054906101000a900460ff1615600e60006101000a81548160ff021916908315150217905550565b6060600061119c83610efe565b9050600081141561121f57600067ffffffffffffffff8111156111e8577f4e487b7100000000000000000000000000000000000000000000000000000000600052604160045260246000fd5b6040519080825280602002602001820160405280156112165781602001602082028036833780820191505090505b50915050611306565b60008167ffffffffffffffff811115611261577f4e487b7100000000000000000000000000000000000000000000000000000000600052604160045260246000fd5b60405190808252806020026020018201604052801561128f5781602001602082028036833780820191505090505b50905060005b828110156112ff576112a7858261097c565b8282815181106112e0577f4e487b7100000000000000000000000000000000000000000000000000000000600052603260045260246000fd5b60200260200101818152505080806112f790613eee565b915050611295565b5080925050505b919050565b6000600a60009054906101000a900473ffffffffffffffffffffffffffffffffffffffff16905090565b61133d611ae6565b73ffffffffffffffffffffffffffffffffffffffff1661135b61130b565b73ffffffffffffffffffffffffffffffffffffffff16146113b1576040517f08c379a00000000000000000000000000000000000000000000000000000000081526004016113a890613b4e565b60405180910390fd5b60006113bd600b611ba7565b905061270f83826113ce9190613d41565b1061140e576040517f08c379a000000000000000000000000000000000000000000000000000000000815260040161140590613a4e565b60405180910390fd5b60005b8381101561143557611422836120e2565b808061142d90613eee565b915050611411565b50505050565b60606001805461144a90613e8b565b80601f016020809104026020016040519081016040528092919081815260200182805461147690613e8b565b80156114c35780601f10611498576101008083540402835291602001916114c3565b820191906000526020600020905b8154815290600101906020018083116114a657829003601f168201915b5050505050905090565b6114df6114d8611ae6565b83836122b0565b5050565b6114eb611ae6565b73ffffffffffffffffffffffffffffffffffffffff1661150961130b565b73ffffffffffffffffffffffffffffffffffffffff161461155f576040517f08c379a000000000000000000000000000000000000000000000000000000000815260040161155690613b4e565b60405180910390fd5b80600d8190555050565b61157a611574611ae6565b83611bb5565b6115b9576040517f08c379a00000000000000000000000000000000000000000000000000000000081526004016115b090613bee565b60405180910390fd5b6115c58484848461241d565b50505050565b60606115d682611a7a565b611615576040517f08c379a000000000000000000000000000000000000000000000000000000000815260040161160c90613b6e565b60405180910390fd5b6010600083815260200190815260200160002060009054906101000a900460ff16156116cd576011805461164890613e8b565b80601f016020809104026020016040519081016040528092919081815260200182805461167490613e8b565b80156116c15780601f10611696576101008083540402835291602001916116c1565b820191906000526020600020905b8154815290600101906020018083116116a457829003601f168201915b5050505050905061175b565b601280546116da90613e8b565b80601f016020809104026020016040519081016040528092919081815260200182805461170690613e8b565b80156117535780601f1061172857610100808354040283529160200191611753565b820191906000526020600020905b81548152906001019060200180831161173657829003601f168201915b505050505090505b919050565b611768611ae6565b73ffffffffffffffffffffffffffffffffffffffff1661178661130b565b73ffffffffffffffffffffffffffffffffffffffff16146117dc576040517f08c379a00000000000000000000000000000000000000000000000000000000081526004016117d390613b4e565b60405180910390fd5b80601290805190602001906117f2929190612e09565b5050565b6000600560008473ffffffffffffffffffffffffffffffffffffffff1673ffffffffffffffffffffffffffffffffffffffff16815260200190815260200160002060008373ffffffffffffffffffffffffffffffffffffffff1673ffffffffffffffffffffffffffffffffffffffff16815260200190815260200160002060009054906101000a900460ff16905092915050565b611892611ae6565b73ffffffffffffffffffffffffffffffffffffffff166118b061130b565b73ffffffffffffffffffffffffffffffffffffffff1614611906576040517f08c379a00000000000000000000000000000000000000000000000000000000081526004016118fd90613b4e565b60405180910390fd5b600073ffffffffffffffffffffffffffffffffffffffff168173ffffffffffffffffffffffffffffffffffffffff161415611976576040517f08c379a000000000000000000000000000000000000000000000000000000000815260040161196d9061398e565b60405180910390fd5b61197f816121ea565b50565b6001816000016000828254019250508190555050565b60007f80ac58cd000000000000000000000000000000000000000000000000000000007bffffffffffffffffffffffffffffffffffffffffffffffffffffffff1916827bffffffffffffffffffffffffffffffffffffffffffffffffffffffff19161480611a6357507f5b5e139f000000000000000000000000000000000000000000000000000000007bffffffffffffffffffffffffffffffffffffffffffffffffffffffff1916827bffffffffffffffffffffffffffffffffffffffffffffffffffffffff1916145b80611a735750611a7282612479565b5b9050919050565b60008073ffffffffffffffffffffffffffffffffffffffff166002600084815260200190815260200160002060009054906101000a900473ffffffffffffffffffffffffffffffffffffffff1673ffffffffffffffffffffffffffffffffffffffff1614159050919050565b600033905090565b816004600083815260200190815260200160002060006101000a81548173ffffffffffffffffffffffffffffffffffffffff021916908373ffffffffffffffffffffffffffffffffffffffff160217905550808273ffffffffffffffffffffffffffffffffffffffff16611b6183610b74565b73ffffffffffffffffffffffffffffffffffffffff167f8c5be1e5ebec7d5bd14f71427d1e84f3dd0314c0f7b2291e5b200ac8c7c3b92560405160405180910390a45050565b600081600001549050919050565b6000611bc082611a7a565b611bff576040517f08c379a0000000000000000000000000000000000000000000000000000000008152600401611bf690613a6e565b60405180910390fd5b6000611c0a83610b74565b90508073ffffffffffffffffffffffffffffffffffffffff168473ffffffffffffffffffffffffffffffffffffffff161480611c7957508373ffffffffffffffffffffffffffffffffffffffff16611c6184610762565b73ffffffffffffffffffffffffffffffffffffffff16145b80611c8a5750611c8981856117f6565b5b91505092915050565b8273ffffffffffffffffffffffffffffffffffffffff16611cb382610b74565b73ffffffffffffffffffffffffffffffffffffffff1614611d09576040517f08c379a0000000000000000000000000000000000000000000000000000000008152600401611d00906139ae565b60405180910390fd5b600073ffffffffffffffffffffffffffffffffffffffff168273ffffffffffffffffffffffffffffffffffffffff161415611d79576040517f08c379a0000000000000000000000000000000000000000000000000000000008152600401611d7090613a0e565b60405180910390fd5b611d848383836124e3565b611d8f600082611aee565b6001600360008573ffffffffffffffffffffffffffffffffffffffff1673ffffffffffffffffffffffffffffffffffffffff1681526020019081526020016000206000828254611ddf9190613d97565b925050819055506001600360008473ffffffffffffffffffffffffffffffffffffffff1673ffffffffffffffffffffffffffffffffffffffff1681526020019081526020016000206000828254611e369190613d41565b92505081905550816002600083815260200190815260200160002060006101000a81548173ffffffffffffffffffffffffffffffffffffffff021916908373ffffffffffffffffffffffffffffffffffffffff160217905550808273ffffffffffffffffffffffffffffffffffffffff168473ffffffffffffffffffffffffffffffffffffffff167fddf252ad1be2c89b69c2b068fc378daa952ba7f163c4a11628f55a4df523b3ef60405160405180910390a4611ef58383836125f7565b505050565b6000611f0582610b74565b9050611f13816000846124e3565b611f1e600083611aee565b6001600360008373ffffffffffffffffffffffffffffffffffffffff1673ffffffffffffffffffffffffffffffffffffffff1681526020019081526020016000206000828254611f6e9190613d97565b925050819055506002600083815260200190815260200160002060006101000a81549073ffffffffffffffffffffffffffffffffffffffff021916905581600073ffffffffffffffffffffffffffffffffffffffff168273ffffffffffffffffffffffffffffffffffffffff167fddf252ad1be2c89b69c2b068fc378daa952ba7f163c4a11628f55a4df523b3ef60405160405180910390a4612013816000846125f7565b5050565b60008160000154905060008111612063576040517f08c379a000000000000000000000000000000000000000000000000000000000815260040161205a9061394e565b60405180910390fd5b6001810382600001819055505050565b6000600880549050905090565b60006120d9848480806020026020016040519081016040528093929190818152602001838360200280828437600081840152601f19601f82011690508083019250505050505050600c546120d433866125fc565b61262f565b90509392505050565b60006120ee600b611ba7565b90506120fa600b611982565b816010600083815260200190815260200160002060006101000a81548160ff021916908315150217905550600f60003373ffffffffffffffffffffffffffffffffffffffff1673ffffffffffffffffffffffffffffffffffffffff168152602001908152602001600020600081548092919061217590613eee565b91905055506121843382612646565b5050565b60006121e1848480806020026020016040519081016040528093929190818152602001838360200280828437600081840152601f19601f82011690508083019250505050505050600d546121dc33866125fc565b61262f565b90509392505050565b6000600a60009054906101000a900473ffffffffffffffffffffffffffffffffffffffff16905081600a60006101000a81548173ffffffffffffffffffffffffffffffffffffffff021916908373ffffffffffffffffffffffffffffffffffffffff1602179055508173ffffffffffffffffffffffffffffffffffffffff168173ffffffffffffffffffffffffffffffffffffffff167f8be0079c531659141344cd1fd0a4f28419497f9722a3daafe3b4186f6b6457e060405160405180910390a35050565b8173ffffffffffffffffffffffffffffffffffffffff168373ffffffffffffffffffffffffffffffffffffffff16141561231f576040517f08c379a000000000000000000000000000000000000000000000000000000000815260040161231690613a2e565b60405180910390fd5b80600560008573ffffffffffffffffffffffffffffffffffffffff1673ffffffffffffffffffffffffffffffffffffffff16815260200190815260200160002060008473ffffffffffffffffffffffffffffffffffffffff1673ffffffffffffffffffffffffffffffffffffffff16815260200190815260200160002060006101000a81548160ff0219169083151502179055508173ffffffffffffffffffffffffffffffffffffffff168373ffffffffffffffffffffffffffffffffffffffff167f17307eab39ab6107e8899845ad3d59bd9653f200f220920489ca2b5937696c318360405161241091906138d6565b60405180910390a3505050565b612428848484611c93565b61243484848484612820565b612473576040517f08c379a000000000000000000000000000000000000000000000000000000000815260040161246a9061396e565b60405180910390fd5b50505050565b60007f01ffc9a7000000000000000000000000000000000000000000000000000000007bffffffffffffffffffffffffffffffffffffffffffffffffffffffff1916827bffffffffffffffffffffffffffffffffffffffffffffffffffffffff1916149050919050565b6124ee8383836129b7565b600073ffffffffffffffffffffffffffffffffffffffff168373ffffffffffffffffffffffffffffffffffffffff1614156125315761252c816129bc565b612570565b8173ffffffffffffffffffffffffffffffffffffffff168373ffffffffffffffffffffffffffffffffffffffff161461256f5761256e8382612a05565b5b5b600073ffffffffffffffffffffffffffffffffffffffff168273ffffffffffffffffffffffffffffffffffffffff1614156125b3576125ae81612b72565b6125f2565b8273ffffffffffffffffffffffffffffffffffffffff168273ffffffffffffffffffffffffffffffffffffffff16146125f1576125f08282612cb5565b5b5b505050565b505050565b60008183604051602001612611929190613821565b60405160208183030381529060405280519060200120905092915050565b60008261263c8584612d34565b1490509392505050565b600073ffffffffffffffffffffffffffffffffffffffff168273ffffffffffffffffffffffffffffffffffffffff1614156126b6576040517f08c379a00000000000000000000000000000000000000000000000000000000081526004016126ad90613b0e565b60405180910390fd5b6126bf81611a7a565b156126ff576040517f08c379a00000000000000000000000000000000000000000000000000000000081526004016126f6906139ce565b60405180910390fd5b61270b600083836124e3565b6001600360008473ffffffffffffffffffffffffffffffffffffffff1673ffffffffffffffffffffffffffffffffffffffff168152602001908152602001600020600082825461275b9190613d41565b92505081905550816002600083815260200190815260200160002060006101000a81548173ffffffffffffffffffffffffffffffffffffffff021916908373ffffffffffffffffffffffffffffffffffffffff160217905550808273ffffffffffffffffffffffffffffffffffffffff16600073ffffffffffffffffffffffffffffffffffffffff167fddf252ad1be2c89b69c2b068fc378daa952ba7f163c4a11628f55a4df523b3ef60405160405180910390a461281c600083836125f7565b5050565b60006128418473ffffffffffffffffffffffffffffffffffffffff16612dcf565b156129aa578373ffffffffffffffffffffffffffffffffffffffff1663150b7a0261286a611ae6565b8786866040518563ffffffff1660e01b815260040161288c9493929190613868565b602060405180830381600087803b1580156128a657600080fd5b505af19250505080156128d757506040513d601f19601f820116820180604052508101906128d4919061323d565b60015b61295a573d8060008114612907576040519150601f19603f3d011682016040523d82523d6000602084013e61290c565b606091505b50600081511415612952576040517f08c379a00000000000000000000000000000000000000000000000000000000081526004016129499061396e565b60405180910390fd5b805181602001fd5b63150b7a0260e01b7bffffffffffffffffffffffffffffffffffffffffffffffffffffffff1916817bffffffffffffffffffffffffffffffffffffffffffffffffffffffff1916149150506129af565b600190505b949350505050565b505050565b6008805490506009600083815260200190815260200160002081905550600881908060018154018082558091505060019003906000526020600020016000909190919091505550565b60006001612a1284610efe565b612a1c9190613d97565b9050600060076000848152602001908152602001600020549050818114612b01576000600660008673ffffffffffffffffffffffffffffffffffffffff1673ffffffffffffffffffffffffffffffffffffffff168152602001908152602001600020600084815260200190815260200160002054905080600660008773ffffffffffffffffffffffffffffffffffffffff1673ffffffffffffffffffffffffffffffffffffffff168152602001908152602001600020600084815260200190815260200160002081905550816007600083815260200190815260200160002081905550505b6007600084815260200190815260200160002060009055600660008573ffffffffffffffffffffffffffffffffffffffff1673ffffffffffffffffffffffffffffffffffffffff16815260200190815260200160002060008381526020019081526020016000206000905550505050565b60006001600880549050612b869190613d97565b9050600060096000848152602001908152602001600020549050600060088381548110612bdc577f4e487b7100000000000000000000000000000000000000000000000000000000600052603260045260246000fd5b906000526020600020015490508060088381548110612c24577f4e487b7100000000000000000000000000000000000000000000000000000000600052603260045260246000fd5b906000526020600020018190555081600960008381526020019081526020016000208190555060096000858152602001908152602001600020600090556008805480612c99577f4e487b7100000000000000000000000000000000000000000000000000000000600052603160045260246000fd5b6001900381819060005260206000200160009055905550505050565b6000612cc083610efe565b905081600660008573ffffffffffffffffffffffffffffffffffffffff1673ffffffffffffffffffffffffffffffffffffffff168152602001908152602001600020600083815260200190815260200160002081905550806007600084815260200190815260200160002081905550505050565b60008082905060005b8451811015612dc4576000858281518110612d81577f4e487b7100000000000000000000000000000000000000000000000000000000600052603260045260246000fd5b60200260200101519050808311612da357612d9c8382612df2565b9250612db0565b612dad8184612df2565b92505b508080612dbc90613eee565b915050612d3d565b508091505092915050565b6000808273ffffffffffffffffffffffffffffffffffffffff163b119050919050565b600082600052816020526040600020905092915050565b828054612e1590613e8b565b90600052602060002090601f016020900481019282612e375760008555612e7e565b82601f10612e5057805160ff1916838001178555612e7e565b82800160010185558215612e7e579182015b82811115612e7d578251825591602001919060010190612e62565b5b509050612e8b9190612e8f565b5090565b5b80821115612ea8576000816000905550600101612e90565b5090565b6000612ebf612eba84613c6e565b613c49565b905082815260208101848484011115612ed757600080fd5b612ee2848285613e49565b509392505050565b6000612efd612ef884613c9f565b613c49565b905082815260208101848484011115612f1557600080fd5b612f20848285613e49565b509392505050565b600081359050612f37816145fc565b92915050565b60008083601f840112612f4f57600080fd5b8235905067ffffffffffffffff811115612f6857600080fd5b602083019150836020820283011115612f8057600080fd5b9250929050565b600081359050612f9681614613565b92915050565b600081359050612fab8161462a565b92915050565b600081359050612fc081614641565b92915050565b600081519050612fd581614641565b92915050565b600082601f830112612fec57600080fd5b8135612ffc848260208601612eac565b91505092915050565b600082601f83011261301657600080fd5b8135613026848260208601612eea565b91505092915050565b60008135905061303e81614658565b92915050565b60006020828403121561305657600080fd5b600061306484828501612f28565b91505092915050565b6000806040838503121561308057600080fd5b600061308e85828601612f28565b925050602061309f85828601612f28565b9150509250929050565b6000806000606084860312156130be57600080fd5b60006130cc86828701612f28565b93505060206130dd86828701612f28565b92505060406130ee8682870161302f565b9150509250925092565b6000806000806080858703121561310e57600080fd5b600061311c87828801612f28565b945050602061312d87828801612f28565b935050604061313e8782880161302f565b925050606085013567ffffffffffffffff81111561315b57600080fd5b61316787828801612fdb565b91505092959194509250565b6000806040838503121561318657600080fd5b600061319485828601612f28565b92505060206131a585828601612f87565b9150509250929050565b600080604083850312156131c257600080fd5b60006131d085828601612f28565b92505060206131e18582860161302f565b9150509250929050565b6000602082840312156131fd57600080fd5b600061320b84828501612f9c565b91505092915050565b60006020828403121561322657600080fd5b600061323484828501612fb1565b91505092915050565b60006020828403121561324f57600080fd5b600061325d84828501612fc6565b91505092915050565b60006020828403121561327857600080fd5b600082013567ffffffffffffffff81111561329257600080fd5b61329e84828501613005565b91505092915050565b6000602082840312156132b957600080fd5b60006132c78482850161302f565b91505092915050565b600080604083850312156132e357600080fd5b60006132f18582860161302f565b925050602061330285828601612f87565b9150509250929050565b6000806000806060858703121561332257600080fd5b60006133308782880161302f565b94505060206133418782880161302f565b935050604085013567ffffffffffffffff81111561335e57600080fd5b61336a87828801612f3d565b925092505092959194509250565b600061338483836137ec565b60208301905092915050565b61339981613dcb565b82525050565b6133b06133ab82613dcb565b613f37565b82525050565b60006133c182613ce0565b6133cb8185613d0e565b93506133d683613cd0565b8060005b838110156134075781516133ee8882613378565b97506133f983613d01565b9250506001810190506133da565b5085935050505092915050565b61341d81613ddd565b82525050565b61342c81613de9565b82525050565b600061343d82613ceb565b6134478185613d1f565b9350613457818560208601613e58565b61346081613ff2565b840191505092915050565b600061347682613cf6565b6134808185613d30565b9350613490818560208601613e58565b61349981613ff2565b840191505092915050565b60006134b1602b83613d30565b91506134bc82614010565b604082019050919050565b60006134d4601b83613d30565b91506134df8261405f565b602082019050919050565b60006134f7603283613d30565b915061350282614088565b604082019050919050565b600061351a602683613d30565b9150613525826140d7565b604082019050919050565b600061353d602583613d30565b915061354882614126565b604082019050919050565b6000613560601c83613d30565b915061356b82614175565b602082019050919050565b6000613583601183613d30565b915061358e8261419e565b602082019050919050565b60006135a6602483613d30565b91506135b1826141c7565b604082019050919050565b60006135c9601983613d30565b91506135d482614216565b602082019050919050565b60006135ec601483613d30565b91506135f78261423f565b602082019050919050565b600061360f602c83613d30565b915061361a82614268565b604082019050919050565b6000613632603883613d30565b915061363d826142b7565b604082019050919050565b6000613655602a83613d30565b915061366082614306565b604082019050919050565b6000613678602983613d30565b915061368382614355565b604082019050919050565b600061369b601b83613d30565b91506136a6826143a4565b602082019050919050565b60006136be602083613d30565b91506136c9826143cd565b602082019050919050565b60006136e1602c83613d30565b91506136ec826143f6565b604082019050919050565b6000613704602083613d30565b915061370f82614445565b602082019050919050565b6000613727602f83613d30565b91506137328261446e565b604082019050919050565b600061374a602083613d30565b9150613755826144bd565b602082019050919050565b600061376d602183613d30565b9150613778826144e6565b604082019050919050565b6000613790601283613d30565b915061379b82614535565b602082019050919050565b60006137b3603183613d30565b91506137be8261455e565b604082019050919050565b60006137d6602c83613d30565b91506137e1826145ad565b604082019050919050565b6137f581613e3f565b82525050565b61380481613e3f565b82525050565b61381b61381682613e3f565b613f5b565b82525050565b600061382d828561380a565b60208201915061383d828461339f565b6014820191508190509392505050565b60006020820190506138626000830184613390565b92915050565b600060808201905061387d6000830187613390565b61388a6020830186613390565b61389760408301856137fb565b81810360608301526138a98184613432565b905095945050505050565b600060208201905081810360008301526138ce81846133b6565b905092915050565b60006020820190506138eb6000830184613414565b92915050565b60006020820190506139066000830184613423565b92915050565b60006020820190508181036000830152613926818461346b565b905092915050565b60006020820190508181036000830152613947816134a4565b9050919050565b60006020820190508181036000830152613967816134c7565b9050919050565b60006020820190508181036000830152613987816134ea565b9050919050565b600060208201905081810360008301526139a78161350d565b9050919050565b600060208201905081810360008301526139c781613530565b9050919050565b600060208201905081810360008301526139e781613553565b9050919050565b60006020820190508181036000830152613a0781613576565b9050919050565b60006020820190508181036000830152613a2781613599565b9050919050565b60006020820190508181036000830152613a47816135bc565b9050919050565b60006020820190508181036000830152613a67816135df565b9050919050565b60006020820190508181036000830152613a8781613602565b9050919050565b60006020820190508181036000830152613aa781613625565b9050919050565b60006020820190508181036000830152613ac781613648565b9050919050565b60006020820190508181036000830152613ae78161366b565b9050919050565b60006020820190508181036000830152613b078161368e565b9050919050565b60006020820190508181036000830152613b27816136b1565b9050919050565b60006020820190508181036000830152613b47816136d4565b9050919050565b60006020820190508181036000830152613b67816136f7565b9050919050565b60006020820190508181036000830152613b878161371a565b9050919050565b60006020820190508181036000830152613ba78161373d565b9050919050565b60006020820190508181036000830152613bc781613760565b9050919050565b60006020820190508181036000830152613be781613783565b9050919050565b60006020820190508181036000830152613c07816137a6565b9050919050565b60006020820190508181036000830152613c27816137c9565b9050919050565b6000602082019050613c4360008301846137fb565b92915050565b6000613c53613c64565b9050613c5f8282613ebd565b919050565b6000604051905090565b600067ffffffffffffffff821115613c8957613c88613fc3565b5b613c9282613ff2565b9050602081019050919050565b600067ffffffffffffffff821115613cba57613cb9613fc3565b5b613cc382613ff2565b9050602081019050919050565b6000819050602082019050919050565b600081519050919050565b600081519050919050565b600081519050919050565b6000602082019050919050565b600082825260208201905092915050565b600082825260208201905092915050565b600082825260208201905092915050565b6000613d4c82613e3f565b9150613d5783613e3f565b9250827fffffffffffffffffffffffffffffffffffffffffffffffffffffffffffffffff03821115613d8c57613d8b613f65565b5b828201905092915050565b6000613da282613e3f565b9150613dad83613e3f565b925082821015613dc057613dbf613f65565b5b828203905092915050565b6000613dd682613e1f565b9050919050565b60008115159050919050565b6000819050919050565b60007fffffffff0000000000000000000000000000000000000000000000000000000082169050919050565b600073ffffffffffffffffffffffffffffffffffffffff82169050919050565b6000819050919050565b82818337600083830152505050565b60005b83811015613e76578082015181840152602081019050613e5b565b83811115613e85576000848401525b50505050565b60006002820490506001821680613ea357607f821691505b60208210811415613eb757613eb6613f94565b5b50919050565b613ec682613ff2565b810181811067ffffffffffffffff82111715613ee557613ee4613fc3565b5b80604052505050565b6000613ef982613e3f565b91507fffffffffffffffffffffffffffffffffffffffffffffffffffffffffffffffff821415613f2c57613f2b613f65565b5b600182019050919050565b6000613f4282613f49565b9050919050565b6000613f5482614003565b9050919050565b6000819050919050565b7f4e487b7100000000000000000000000000000000000000000000000000000000600052601160045260246000fd5b7f4e487b7100000000000000000000000000000000000000000000000000000000600052602260045260246000fd5b7f4e487b7100000000000000000000000000000000000000000000000000000000600052604160045260246000fd5b6000601f19601f8301169050919050565b60008160601b9050919050565b7f455243373231456e756d657261626c653a206f776e657220696e646578206f7560008201527f74206f6620626f756e6473000000000000000000000000000000000000000000602082015250565b7f436f756e7465723a2064656372656d656e74206f766572666c6f770000000000600082015250565b7f4552433732313a207472616e7366657220746f206e6f6e20455243373231526560008201527f63656976657220696d706c656d656e7465720000000000000000000000000000602082015250565b7f4f776e61626c653a206e6577206f776e657220697320746865207a65726f206160008201527f6464726573730000000000000000000000000000000000000000000000000000602082015250565b7f4552433732313a207472616e736665722066726f6d20696e636f72726563742060008201527f6f776e6572000000000000000000000000000000000000000000000000000000602082015250565b7f4552433732313a20746f6b656e20616c7265616479206d696e74656400000000600082015250565b7f4578636565647320616c6c6f77616e6365000000000000000000000000000000600082015250565b7f4552433732313a207472616e7366657220746f20746865207a65726f2061646460008201527f7265737300000000000000000000000000000000000000000000000000000000602082015250565b7f4552433732313a20617070726f766520746f2063616c6c657200000000000000600082015250565b7f4578636565647320746f74616c20737570706c79000000000000000000000000600082015250565b7f4552433732313a206f70657261746f7220717565727920666f72206e6f6e657860008201527f697374656e7420746f6b656e0000000000000000000000000000000000000000602082015250565b7f4552433732313a20617070726f76652063616c6c6572206973206e6f74206f7760008201527f6e6572206e6f7220617070726f76656420666f7220616c6c0000000000000000602082015250565b7f4552433732313a2062616c616e636520717565727920666f7220746865207a6560008201527f726f206164647265737300000000000000000000000000000000000000000000602082015250565b7f4552433732313a206f776e657220717565727920666f72206e6f6e657869737460008201527f656e7420746f6b656e0000000000000000000000000000000000000000000000602082015250565b7f5072697661746573616c6520686176656e277420737461727465640000000000600082015250565b7f4552433732313a206d696e7420746f20746865207a65726f2061646472657373600082015250565b7f4552433732313a20617070726f76656420717565727920666f72206e6f6e657860008201527f697374656e7420746f6b656e0000000000000000000000000000000000000000602082015250565b7f4f776e61626c653a2063616c6c6572206973206e6f7420746865206f776e6572600082015250565b7f4552433732314d657461646174613a2055524920717565727920666f72206e6f60008201527f6e6578697374656e7420746f6b656e0000000000000000000000000000000000602082015250565b7f63616c6c6572206973206e6f74206f776e6572206e6f7220617070726f766564600082015250565b7f4552433732313a20617070726f76616c20746f2063757272656e74206f776e6560008201527f7200000000000000000000000000000000000000000000000000000000000000602082015250565b7f4e6f7420616c6c6f776564206f726967696e0000000000000000000000000000600082015250565b7f4552433732313a207472616e736665722063616c6c6572206973206e6f74206f60008201527f776e6572206e6f7220617070726f766564000000000000000000000000000000602082015250565b7f455243373231456e756d657261626c653a20676c6f62616c20696e646578206f60008201527f7574206f6620626f756e64730000000000000000000000000000000000000000602082015250565b61460581613dcb565b811461461057600080fd5b50565b61461c81613ddd565b811461462757600080fd5b50565b61463381613de9565b811461463e57600080fd5b50565b61464a81613df3565b811461465557600080fd5b50565b61466181613e3f565b811461466c57600080fd5b5056fea2646970667358221220a3de65bc24d956134504d145908676b9098be09a3cefe0f6037d598bf57c75de64736f6c63430008040033",
  "linkReferences": {},
  "deployedLinkReferences": {}
}